{
  "contractName": "FsDisk",
  "abi": [
    {
      "inputs": [],
      "payable": false,
      "stateMutability": "nonpayable",
      "type": "constructor"
    },
    {
      "constant": false,
      "inputs": [],
      "name": "mount",
      "outputs": [],
      "payable": false,
      "stateMutability": "nonpayable",
      "type": "function"
    },
    {
      "constant": false,
      "inputs": [],
      "name": "unmount",
      "outputs": [],
      "payable": false,
      "stateMutability": "nonpayable",
      "type": "function"
    },
    {
      "constant": true,
      "inputs": [
        {
          "internalType": "uint256",
          "name": "ino",
          "type": "uint256"
        }
      ],
      "name": "dirInodeToPath",
      "outputs": [
        {
          "internalType": "bytes",
          "name": "",
          "type": "bytes"
        }
      ],
      "payable": false,
      "stateMutability": "view",
      "type": "function"
    },
    {
      "constant": false,
      "inputs": [
        {
          "internalType": "bytes",
          "name": "path",
          "type": "bytes"
        },
        {
          "internalType": "uint256",
          "name": "curdir",
          "type": "uint256"
        },
        {
          "internalType": "uint256",
          "name": "flags",
          "type": "uint256"
        }
      ],
      "name": "open",
      "outputs": [
        {
          "internalType": "uint256",
          "name": "",
          "type": "uint256"
        }
      ],
      "payable": false,
      "stateMutability": "nonpayable",
      "type": "function"
    },
    {
      "constant": true,
      "inputs": [
        {
          "internalType": "bytes",
          "name": "path",
          "type": "bytes"
        },
        {
          "internalType": "uint256",
          "name": "curdir",
          "type": "uint256"
        },
        {
          "internalType": "uint256",
          "name": "flags",
          "type": "uint256"
        }
      ],
      "name": "openOnly",
      "outputs": [
        {
          "internalType": "uint256",
          "name": "",
          "type": "uint256"
        }
      ],
      "payable": false,
      "stateMutability": "view",
      "type": "function"
    },
    {
      "constant": false,
      "inputs": [
        {
          "internalType": "uint256",
          "name": "ino",
          "type": "uint256"
        }
      ],
      "name": "close",
      "outputs": [],
      "payable": false,
      "stateMutability": "nonpayable",
      "type": "function"
    },
    {
      "constant": true,
      "inputs": [
        {
          "internalType": "uint256",
          "name": "ino",
          "type": "uint256"
        },
        {
          "internalType": "uint256",
          "name": "index",
          "type": "uint256"
        }
      ],
      "name": "readkey",
      "outputs": [
        {
          "internalType": "bytes",
          "name": "",
          "type": "bytes"
        }
      ],
      "payable": false,
      "stateMutability": "view",
      "type": "function"
    },
    {
      "constant": true,
      "inputs": [
        {
          "internalType": "uint256",
          "name": "ino",
          "type": "uint256"
        },
        {
          "internalType": "bytes",
          "name": "key",
          "type": "bytes"
        }
      ],
      "name": "read",
      "outputs": [
        {
          "internalType": "bytes",
          "name": "",
          "type": "bytes"
        }
      ],
      "payable": false,
      "stateMutability": "view",
      "type": "function"
    },
    {
      "constant": false,
      "inputs": [
        {
          "internalType": "uint256",
          "name": "ino",
          "type": "uint256"
        },
        {
          "internalType": "bytes",
          "name": "key",
          "type": "bytes"
        },
        {
          "internalType": "bytes",
          "name": "value",
          "type": "bytes"
        }
      ],
      "name": "write",
      "outputs": [],
      "payable": false,
      "stateMutability": "nonpayable",
      "type": "function"
    },
    {
      "constant": false,
      "inputs": [
        {
          "internalType": "uint256",
          "name": "ino",
          "type": "uint256"
        },
        {
          "internalType": "bytes",
          "name": "key",
          "type": "bytes"
        },
        {
          "internalType": "uint256",
          "name": "len",
          "type": "uint256"
        }
      ],
      "name": "truncate",
      "outputs": [],
      "payable": false,
      "stateMutability": "nonpayable",
      "type": "function"
    },
    {
      "constant": false,
      "inputs": [
        {
          "internalType": "uint256",
          "name": "ino",
          "type": "uint256"
        },
        {
          "internalType": "bytes",
          "name": "key",
          "type": "bytes"
        }
      ],
      "name": "clear",
      "outputs": [],
      "payable": false,
      "stateMutability": "nonpayable",
      "type": "function"
    },
    {
      "constant": false,
      "inputs": [
        {
          "internalType": "bytes",
          "name": "source",
          "type": "bytes"
        },
        {
          "internalType": "bytes",
          "name": "target",
          "type": "bytes"
        },
        {
          "internalType": "uint256",
          "name": "curdir",
          "type": "uint256"
        }
      ],
      "name": "link",
      "outputs": [],
      "payable": false,
      "stateMutability": "nonpayable",
      "type": "function"
    },
    {
      "constant": false,
      "inputs": [
        {
          "internalType": "bytes",
          "name": "path",
          "type": "bytes"
        },
        {
          "internalType": "uint256",
          "name": "curdir",
          "type": "uint256"
        }
      ],
      "name": "unlink",
      "outputs": [],
      "payable": false,
      "stateMutability": "nonpayable",
      "type": "function"
    },
    {
      "constant": false,
      "inputs": [
        {
          "internalType": "bytes",
          "name": "source",
          "type": "bytes"
        },
        {
          "internalType": "bytes",
          "name": "target",
          "type": "bytes"
        },
        {
          "internalType": "uint256",
          "name": "curdir",
          "type": "uint256"
        }
      ],
      "name": "symlink",
      "outputs": [],
      "payable": false,
      "stateMutability": "nonpayable",
      "type": "function"
    },
    {
      "constant": true,
      "inputs": [
        {
          "internalType": "bytes",
          "name": "path",
          "type": "bytes"
        },
        {
          "internalType": "uint256",
          "name": "curdir",
          "type": "uint256"
        }
      ],
      "name": "readlink",
      "outputs": [
        {
          "internalType": "bytes",
          "name": "",
          "type": "bytes"
        }
      ],
      "payable": false,
      "stateMutability": "view",
      "type": "function"
    },
    {
      "constant": false,
      "inputs": [
        {
          "internalType": "bytes",
          "name": "source",
          "type": "bytes"
        },
        {
          "internalType": "bytes",
          "name": "target",
          "type": "bytes"
        },
        {
          "internalType": "uint256",
          "name": "curdir",
          "type": "uint256"
        }
      ],
      "name": "move",
      "outputs": [],
      "payable": false,
      "stateMutability": "nonpayable",
      "type": "function"
    },
    {
      "constant": false,
      "inputs": [
        {
          "internalType": "bytes",
          "name": "source",
          "type": "bytes"
        },
        {
          "internalType": "bytes",
          "name": "target",
          "type": "bytes"
        },
        {
          "internalType": "uint256",
          "name": "curdir",
          "type": "uint256"
        }
      ],
      "name": "copy",
      "outputs": [],
      "payable": false,
      "stateMutability": "nonpayable",
      "type": "function"
    },
    {
      "constant": false,
      "inputs": [
        {
          "internalType": "bytes",
          "name": "path",
          "type": "bytes"
        },
        {
          "internalType": "address",
          "name": "owner",
          "type": "address"
        },
        {
          "internalType": "address",
          "name": "group",
          "type": "address"
        },
        {
          "internalType": "uint256",
          "name": "curdir",
          "type": "uint256"
        }
      ],
      "name": "chown",
      "outputs": [],
      "payable": false,
      "stateMutability": "nonpayable",
      "type": "function"
    },
    {
      "constant": false,
      "inputs": [
        {
          "internalType": "bytes",
          "name": "path",
          "type": "bytes"
        },
        {
          "internalType": "uint16",
          "name": "mode",
          "type": "uint16"
        },
        {
          "internalType": "uint256",
          "name": "curdir",
          "type": "uint256"
        }
      ],
      "name": "chmod",
      "outputs": [],
      "payable": false,
      "stateMutability": "nonpayable",
      "type": "function"
    },
    {
      "constant": false,
      "inputs": [
        {
          "internalType": "bytes",
          "name": "path",
          "type": "bytes"
        },
        {
          "internalType": "uint256",
          "name": "curdir",
          "type": "uint256"
        }
      ],
      "name": "mkdir",
      "outputs": [],
      "payable": false,
      "stateMutability": "nonpayable",
      "type": "function"
    },
    {
      "constant": false,
      "inputs": [
        {
          "internalType": "bytes",
          "name": "path",
          "type": "bytes"
        },
        {
          "internalType": "uint256",
          "name": "curdir",
          "type": "uint256"
        }
      ],
      "name": "rmdir",
      "outputs": [],
      "payable": false,
      "stateMutability": "nonpayable",
      "type": "function"
    },
    {
      "constant": true,
      "inputs": [
        {
          "internalType": "bytes",
          "name": "path",
          "type": "bytes"
        },
        {
          "internalType": "uint256",
          "name": "curdir",
          "type": "uint256"
        }
      ],
      "name": "stat",
      "outputs": [
        {
          "internalType": "enum FileSystem.FileType",
          "name": "fileType",
          "type": "uint8"
        },
        {
          "internalType": "uint16",
          "name": "mode",
          "type": "uint16"
        },
        {
          "internalType": "uint256",
          "name": "ino_",
          "type": "uint256"
        },
        {
          "internalType": "uint256",
          "name": "links",
          "type": "uint256"
        },
        {
          "internalType": "address",
          "name": "owner",
          "type": "address"
        },
        {
          "internalType": "address",
          "name": "group",
          "type": "address"
        },
        {
          "internalType": "uint256",
          "name": "entries",
          "type": "uint256"
        },
        {
          "internalType": "uint256",
          "name": "size",
          "type": "uint256"
        },
        {
          "internalType": "uint256",
          "name": "lastModified",
          "type": "uint256"
        }
      ],
      "payable": false,
      "stateMutability": "view",
      "type": "function"
    },
    {
      "constant": true,
      "inputs": [
        {
          "internalType": "bytes",
          "name": "path",
          "type": "bytes"
        },
        {
          "internalType": "uint256",
          "name": "curdir",
          "type": "uint256"
        }
      ],
      "name": "lstat",
      "outputs": [
        {
          "internalType": "enum FileSystem.FileType",
          "name": "fileType",
          "type": "uint8"
        },
        {
          "internalType": "uint16",
          "name": "mode",
          "type": "uint16"
        },
        {
          "internalType": "uint256",
          "name": "ino_",
          "type": "uint256"
        },
        {
          "internalType": "uint256",
          "name": "links",
          "type": "uint256"
        },
        {
          "internalType": "address",
          "name": "owner",
          "type": "address"
        },
        {
          "internalType": "address",
          "name": "group",
          "type": "address"
        },
        {
          "internalType": "uint256",
          "name": "entries",
          "type": "uint256"
        },
        {
          "internalType": "uint256",
          "name": "size",
          "type": "uint256"
        },
        {
          "internalType": "uint256",
          "name": "lastModified",
          "type": "uint256"
        }
      ],
      "payable": false,
      "stateMutability": "view",
      "type": "function"
    },
    {
      "constant": true,
      "inputs": [
        {
          "internalType": "uint256",
          "name": "ino",
          "type": "uint256"
        }
      ],
      "name": "fstat",
      "outputs": [
        {
          "internalType": "enum FileSystem.FileType",
          "name": "fileType",
          "type": "uint8"
        },
        {
          "internalType": "uint16",
          "name": "mode",
          "type": "uint16"
        },
        {
          "internalType": "uint256",
          "name": "ino_",
          "type": "uint256"
        },
        {
          "internalType": "uint256",
          "name": "links",
          "type": "uint256"
        },
        {
          "internalType": "address",
          "name": "owner",
          "type": "address"
        },
        {
          "internalType": "address",
          "name": "group",
          "type": "address"
        },
        {
          "internalType": "uint256",
          "name": "entries",
          "type": "uint256"
        },
        {
          "internalType": "uint256",
          "name": "size",
          "type": "uint256"
        },
        {
          "internalType": "uint256",
          "name": "lastModified",
          "type": "uint256"
        }
      ],
      "payable": false,
      "stateMutability": "view",
      "type": "function"
    }
  ],
  "bytecode": "0x608060405234801561001057600080fd5b50604080517f4acea0a1000000000000000000000000000000000000000000000000000000008152600060048201819052915173__FsLib_________________________________92634acea0a19260248082019391829003018186803b15801561007a57600080fd5b505af415801561008e573d6000803e3d6000fd5b50505050612037806100a16000396000f3fe608060405234801561001057600080fd5b506004361061015c5760003560e060020a9004806377943242116100c7578063c4701cca11610080578063c4701cca14610a54578063c5cdd83e14610a77578063c9cea11e14610aee578063d352ec1114610b5e578063e67dfd6214610c20578063eef81ed014610cb65761015c565b8063779432421461072f57806377cfb08a1461079f578063829e736914610887578063a562b135146108fe578063b9e4bbb3146109c7578063bfb8bc44146109e45761015c565b806323675a5b1161011957806323675a5b146104955780632e95c26f1461049d57806340c6f5ff146105135780636226a6961461058d57806368b848951461064f57806371baaebc146106bf5761015c565b806301328b7c1461016157806304733f57146101f357806305f3b55e1461027b5780630aebeb4e1461033f5780630d28a6af1461035c5780631337a7c8146103d3575b600080fd5b61017e6004803603602081101561017757600080fd5b5035610cbe565b6040805160208082528351818301528351919283929083019185019080838360005b838110156101b85781810151838201526020016101a0565b50505050905090810190601f1680156101e55780820380516001836020036101000a031916815260200191505b509250505060405180910390f35b6102696004803603606081101561020957600080fd5b81019060208101813564010000000081111561022457600080fd5b82018360208201111561023657600080fd5b8035906020019184600183028401116401000000008311171561025857600080fd5b919350915080359060200135610e25565b60408051918252519081900360200190f35b61033d6004803603606081101561029157600080fd5b8101906020810181356401000000008111156102ac57600080fd5b8201836020820111156102be57600080fd5b803590602001918460018302840111640100000000831117156102e057600080fd5b9193909290916020810190356401000000008111156102fe57600080fd5b82018360208201111561031057600080fd5b8035906020019184600183028401116401000000008311171561033257600080fd5b919350915035610ef4565b005b61033d6004803603602081101561035557600080fd5b5035610fd0565b61033d6004803603606081101561037257600080fd5b8135919081019060408101602082013564010000000081111561039457600080fd5b8201836020820111156103a657600080fd5b803590602001918460018302840111640100000000831117156103c857600080fd5b91935091503561105b565b61033d600480360360608110156103e957600080fd5b81019060208101813564010000000081111561040457600080fd5b82018360208201111561041657600080fd5b8035906020019184600183028401116401000000008311171561043857600080fd5b91939092909160208101903564010000000081111561045657600080fd5b82018360208201111561046857600080fd5b8035906020019184600183028401116401000000008311171561048a57600080fd5b919350915035611112565b61033d6111cf565b610269600480360360608110156104b357600080fd5b8101906020810181356401000000008111156104ce57600080fd5b8201836020820111156104e057600080fd5b8035906020019184600183028401116401000000008311171561050257600080fd5b919350915080359060200135611252565b61033d6004803603606081101561052957600080fd5b81019060208101813564010000000081111561054457600080fd5b82018360208201111561055657600080fd5b8035906020019184600183028401116401000000008311171561057857600080fd5b919350915061ffff81351690602001356112ec565b61033d600480360360608110156105a357600080fd5b8101906020810181356401000000008111156105be57600080fd5b8201836020820111156105d057600080fd5b803590602001918460018302840111640100000000831117156105f257600080fd5b91939092909160208101903564010000000081111561061057600080fd5b82018360208201111561062257600080fd5b8035906020019184600183028401116401000000008311171561064457600080fd5b9193509150356113a3565b61017e6004803603604081101561066557600080fd5b81019060208101813564010000000081111561068057600080fd5b82018360208201111561069257600080fd5b803590602001918460018302840111640100000000831117156106b457600080fd5b919350915035611460565b61033d600480360360408110156106d557600080fd5b8101906020810181356401000000008111156106f057600080fd5b82018360208201111561070257600080fd5b8035906020019184600183028401116401000000008311171561072457600080fd5b9193509150356115e9565b61033d6004803603604081101561074557600080fd5b81019060208101813564010000000081111561076057600080fd5b82018360208201111561077257600080fd5b8035906020019184600183028401116401000000008311171561079457600080fd5b919350915035611697565b61080f600480360360408110156107b557600080fd5b8101906020810181356401000000008111156107d057600080fd5b8201836020820111156107e257600080fd5b8035906020019184600183028401116401000000008311171561080457600080fd5b919350915035611728565b604051808a600381111561081f57fe5b60ff16815261ffff90991660208a015250604080890197909752606088019590955273ffffffffffffffffffffffffffffffffffffffff93841660808801529190921660a086015260c085019190915260e08401526101008301525190819003610120019150f35b61017e6004803603604081101561089d57600080fd5b813591908101906040810160208201356401000000008111156108bf57600080fd5b8201836020820111156108d157600080fd5b803590602001918460018302840111640100000000831117156108f357600080fd5b509092509050611874565b61033d6004803603606081101561091457600080fd5b8135919081019060408101602082013564010000000081111561093657600080fd5b82018360208201111561094857600080fd5b8035906020019184600183028401116401000000008311171561096a57600080fd5b91939092909160208101903564010000000081111561098857600080fd5b82018360208201111561099a57600080fd5b803590602001918460018302840111640100000000831117156109bc57600080fd5b509092509050611907565b61080f600480360360208110156109dd57600080fd5b50356119c4565b61080f600480360360408110156109fa57600080fd5b810190602081018135640100000000811115610a1557600080fd5b820183602082011115610a2757600080fd5b80359060200191846001830284011164010000000083111715610a4957600080fd5b919350915035611ada565b61017e60048036036040811015610a6a57600080fd5b5080359060200135611b79565b61033d60048036036040811015610a8d57600080fd5b81359190810190604081016020820135640100000000811115610aaf57600080fd5b820183602082011115610ac157600080fd5b80359060200191846001830284011164010000000083111715610ae357600080fd5b509092509050611ce8565b61033d60048036036040811015610b0457600080fd5b810190602081018135640100000000811115610b1f57600080fd5b820183602082011115610b3157600080fd5b80359060200191846001830284011164010000000083111715610b5357600080fd5b919350915035611d79565b61033d60048036036060811015610b7457600080fd5b810190602081018135640100000000811115610b8f57600080fd5b820183602082011115610ba157600080fd5b80359060200191846001830284011164010000000083111715610bc357600080fd5b919390929091602081019035640100000000811115610be157600080fd5b820183602082011115610bf357600080fd5b80359060200191846001830284011164010000000083111715610c1557600080fd5b919350915035611e0a565b61033d60048036036080811015610c3657600080fd5b810190602081018135640100000000811115610c5157600080fd5b820183602082011115610c6357600080fd5b80359060200191846001830284011164010000000083111715610c8557600080fd5b919350915073ffffffffffffffffffffffffffffffffffffffff813581169160208101359091169060400135611ec7565b61033d611f99565b604080517f5d91495300000000000000000000000000000000000000000000000000000000815260006004820181905260248201849052915160609273__FsLib1________________________________92635d9149539260448083019392829003018186803b158015610d3157600080fd5b505af4158015610d45573d6000803e3d6000fd5b505050506040513d6000823e601f3d908101601f191682016040526020811015610d6e57600080fd5b8101908080516040519392919084640100000000821115610d8e57600080fd5b908301906020820185811115610da357600080fd5b8251640100000000811182820188101715610dbd57600080fd5b82525081516020918201929091019080838360005b83811015610dea578181015183820152602001610dd2565b50505050905090810190601f168015610e175780820380516001836020036101000a031916815260200191505b506040525050509050919050565b60008073__FsLib_________________________________637e9ec4059091878787876040518663ffffffff1660e060020a02815260040180868152602001806020018481526020018381526020018281038252868682818152602001925080828437600081840152601f19601f820116905080830192505050965050505050505060206040518083038186803b158015610ebf57600080fd5b505af4158015610ed3573d6000803e3d6000fd5b505050506040513d6020811015610ee957600080fd5b505195945050505050565b600073__FsLib1________________________________63ba46d329909187878787876040518763ffffffff1660e060020a0281526004018087815260200180602001806020018481526020018381038352888882818152602001925080828437600083820152601f01601f191690910184810383528681526020019050868680828437600081840152601f19601f8201169050808301925050509850505050505050505060006040518083038186803b158015610fb157600080fd5b505af4158015610fc5573d6000803e3d6000fd5b505050505050505050565b604080517f620bd16200000000000000000000000000000000000000000000000000000000815260006004820181905260248201849052915173__FsLib_________________________________9263620bd1629260448082019391829003018186803b15801561104057600080fd5b505af4158015611054573d6000803e3d6000fd5b5050505050565b600073__FsLib_________________________________6380d0c5c99091868686866040518663ffffffff1660e060020a02815260040180868152602001858152602001806020018381526020018281038252858582818152602001925080828437600081840152601f19601f820116905080830192505050965050505050505060006040518083038186803b1580156110f457600080fd5b505af4158015611108573d6000803e3d6000fd5b5050505050505050565b600073__FsLib1________________________________633943dc4b909187878787876040518763ffffffff1660e060020a0281526004018087815260200180602001806020018481526020018381038352888882818152602001925080828437600083820152601f01601f191690910184810383528681526020019050868680828437600081840152601f19601f8201169050808301925050509850505050505050505060006040518083038186803b158015610fb157600080fd5b604080517faf73c9b5000000000000000000000000000000000000000000000000000000008152600060048201819052915173__FsLib_________________________________9263af73c9b59260248082019391829003018186803b15801561123857600080fd5b505af415801561124c573d6000803e3d6000fd5b50505050565b60008073__FsLib_________________________________63bbcd700d9091878787876040518663ffffffff1660e060020a02815260040180868152602001806020018481526020018381526020018281038252868682818152602001925080828437600081840152601f19601f820116905080830192505050965050505050505060206040518083038186803b158015610ebf57600080fd5b6040517fe176728b00000000000000000000000000000000000000000000000000000000815260006004820181815261ffff85166044840152606483018490526080602484019081526084840187905273__FsLib_________________________________9363e176728b93928992899289928992909160a401868680828437600081840152601f19601f820116905080830192505050965050505050505060006040518083038186803b1580156110f457600080fd5b600073__FsLib1________________________________63e4685dc3909187878787876040518763ffffffff1660e060020a0281526004018087815260200180602001806020018481526020018381038352888882818152602001925080828437600083820152601f01601f191690910184810383528681526020019050868680828437600081840152601f19601f8201169050808301925050509850505050505050505060006040518083038186803b158015610fb157600080fd5b6060600073__FsLib1________________________________63fe94764c90918686866040518563ffffffff1660e060020a02815260040180858152602001806020018381526020018281038252858582818152602001925080828437600081840152601f19601f8201169050808301925050509550505050505060006040518083038186803b1580156114f357600080fd5b505af4158015611507573d6000803e3d6000fd5b505050506040513d6000823e601f3d908101601f19168201604052602081101561153057600080fd5b810190808051604051939291908464010000000082111561155057600080fd5b90830190602082018581111561156557600080fd5b825164010000000081118282018810171561157f57600080fd5b82525081516020918201929091019080838360005b838110156115ac578181015183820152602001611594565b50505050905090810190601f1680156115d95780820380516001836020036101000a031916815260200191505b5060405250505090509392505050565b600073__FsLib_________________________________63881ed2e990918585856040518563ffffffff1660e060020a02815260040180858152602001806020018381526020018281038252858582818152602001925080828437600081840152601f19601f8201169050808301925050509550505050505060006040518083038186803b15801561167a57600080fd5b505af415801561168e573d6000803e3d6000fd5b50505050505050565b600073__FsLib_________________________________632964021890918585856040518563ffffffff1660e060020a02815260040180858152602001806020018381526020018281038252858582818152602001925080828437600081840152601f19601f8201169050808301925050509550505050505060006040518083038186803b15801561167a57600080fd5b60008060008060008060008060008073__FsLib_________________________________63c32e7f6390918e8e8e6040518563ffffffff1660e060020a02815260040180858152602001806020018381526020018281038252858582818152602001925080828437600081840152601f19601f820116905080830192505050955050505050506101206040518083038186803b1580156117c757600080fd5b505af41580156117db573d6000803e3d6000fd5b505050506040513d6101208110156117f257600080fd5b8101908080519060200190929190805190602001909291908051906020019092919080519060200190929190805190602001909291908051906020019092919080519060200190929190805190602001909291908051906020019092919050505098509850985098509850985098509850985093979b92969a50939750939750565b6060600073__FsLib_________________________________638ce487fc90918686866040518563ffffffff1660e060020a02815260040180858152602001848152602001806020018281038252848482818152602001925080828437600081840152601f19601f8201169050808301925050509550505050505060006040518083038186803b1580156114f357600080fd5b600073__FsLib_________________________________63d9d06fcf909187878787876040518763ffffffff1660e060020a0281526004018087815260200186815260200180602001806020018381038352878782818152602001925080828437600083820152601f01601f191690910184810383528581526020019050858580828437600081840152601f19601f8201169050808301925050509850505050505050505060006040518083038186803b158015610fb157600080fd5b60008060008060008060008060008073__FsLib_________________________________637545c66b90918c6040518363ffffffff1660e060020a02815260040180838152602001828152602001925050506101206040518083038186803b158015611a2f57600080fd5b505af4158015611a43573d6000803e3d6000fd5b505050506040513d610120811015611a5a57600080fd5b810190808051906020019092919080519060200190929190805190602001909291908051906020019092919080519060200190929190805190602001909291908051906020019092919080519060200190929190805190602001909291905050509850985098509850985098509850985098509193959799909294969850565b60008060008060008060008060008073__FsLib_________________________________63e738d11a90918e8e8e6040518563ffffffff1660e060020a02815260040180858152602001806020018381526020018281038252858582818152602001925080828437600081840152601f19601f820116905080830192505050955050505050506101206040518083038186803b1580156117c757600080fd5b604080517fe81377980000000000000000000000000000000000000000000000000000000081526000600482018190526024820185905260448201849052915160609273__FsLib_________________________________9263e81377989260648083019392829003018186803b158015611bf357600080fd5b505af4158015611c07573d6000803e3d6000fd5b505050506040513d6000823e601f3d908101601f191682016040526020811015611c3057600080fd5b8101908080516040519392919084640100000000821115611c5057600080fd5b908301906020820185811115611c6557600080fd5b8251640100000000811182820188101715611c7f57600080fd5b82525081516020918201929091019080838360005b83811015611cac578181015183820152602001611c94565b50505050905090810190601f168015611cd95780820380516001836020036101000a031916815260200191505b50604052505050905092915050565b600073__FsLib_________________________________6338ef25ff90918585856040518563ffffffff1660e060020a02815260040180858152602001848152602001806020018281038252848482818152602001925080828437600081840152601f19601f8201169050808301925050509550505050505060006040518083038186803b15801561167a57600080fd5b600073__FsLib_________________________________63785ae79d90918585856040518563ffffffff1660e060020a02815260040180858152602001806020018381526020018281038252858582818152602001925080828437600081840152601f19601f8201169050808301925050509550505050505060006040518083038186803b15801561167a57600080fd5b600073__FsLib1________________________________6356e58c80909187878787876040518763ffffffff1660e060020a0281526004018087815260200180602001806020018481526020018381038352888882818152602001925080828437600083820152601f01601f191690910184810383528681526020019050868680828437600081840152601f19601f8201169050808301925050509850505050505050505060006040518083038186803b158015610fb157600080fd5b6040517fee43b91500000000000000000000000000000000000000000000000000000000815260006004820181815273ffffffffffffffffffffffffffffffffffffffff8087166044850152851660648401526084830184905260a06024840190815260a4840188905273__FsLib_________________________________9363ee43b91593928a928a928a928a928a9260c401878780828437600081840152601f19601f82011690508083019250505097505050505050505060006040518083038186803b158015610fb157600080fd5b604080517f5e35ed27000000000000000000000000000000000000000000000000000000008152600060048201819052915173__FsLib_________________________________92635e35ed279260248082019391829003018186803b15801561123857600080fdfea265627a7a7231582061f2a62e5b45a0b01f1143ed1f86b87c3f68a5b770f3fd2238c984b3056110b564736f6c63430005100032",
  "deployedBytecode": "0x608060405234801561001057600080fd5b506004361061015c5760003560e060020a9004806377943242116100c7578063c4701cca11610080578063c4701cca14610a54578063c5cdd83e14610a77578063c9cea11e14610aee578063d352ec1114610b5e578063e67dfd6214610c20578063eef81ed014610cb65761015c565b8063779432421461072f57806377cfb08a1461079f578063829e736914610887578063a562b135146108fe578063b9e4bbb3146109c7578063bfb8bc44146109e45761015c565b806323675a5b1161011957806323675a5b146104955780632e95c26f1461049d57806340c6f5ff146105135780636226a6961461058d57806368b848951461064f57806371baaebc146106bf5761015c565b806301328b7c1461016157806304733f57146101f357806305f3b55e1461027b5780630aebeb4e1461033f5780630d28a6af1461035c5780631337a7c8146103d3575b600080fd5b61017e6004803603602081101561017757600080fd5b5035610cbe565b6040805160208082528351818301528351919283929083019185019080838360005b838110156101b85781810151838201526020016101a0565b50505050905090810190601f1680156101e55780820380516001836020036101000a031916815260200191505b509250505060405180910390f35b6102696004803603606081101561020957600080fd5b81019060208101813564010000000081111561022457600080fd5b82018360208201111561023657600080fd5b8035906020019184600183028401116401000000008311171561025857600080fd5b919350915080359060200135610e25565b60408051918252519081900360200190f35b61033d6004803603606081101561029157600080fd5b8101906020810181356401000000008111156102ac57600080fd5b8201836020820111156102be57600080fd5b803590602001918460018302840111640100000000831117156102e057600080fd5b9193909290916020810190356401000000008111156102fe57600080fd5b82018360208201111561031057600080fd5b8035906020019184600183028401116401000000008311171561033257600080fd5b919350915035610ef4565b005b61033d6004803603602081101561035557600080fd5b5035610fd0565b61033d6004803603606081101561037257600080fd5b8135919081019060408101602082013564010000000081111561039457600080fd5b8201836020820111156103a657600080fd5b803590602001918460018302840111640100000000831117156103c857600080fd5b91935091503561105b565b61033d600480360360608110156103e957600080fd5b81019060208101813564010000000081111561040457600080fd5b82018360208201111561041657600080fd5b8035906020019184600183028401116401000000008311171561043857600080fd5b91939092909160208101903564010000000081111561045657600080fd5b82018360208201111561046857600080fd5b8035906020019184600183028401116401000000008311171561048a57600080fd5b919350915035611112565b61033d6111cf565b610269600480360360608110156104b357600080fd5b8101906020810181356401000000008111156104ce57600080fd5b8201836020820111156104e057600080fd5b8035906020019184600183028401116401000000008311171561050257600080fd5b919350915080359060200135611252565b61033d6004803603606081101561052957600080fd5b81019060208101813564010000000081111561054457600080fd5b82018360208201111561055657600080fd5b8035906020019184600183028401116401000000008311171561057857600080fd5b919350915061ffff81351690602001356112ec565b61033d600480360360608110156105a357600080fd5b8101906020810181356401000000008111156105be57600080fd5b8201836020820111156105d057600080fd5b803590602001918460018302840111640100000000831117156105f257600080fd5b91939092909160208101903564010000000081111561061057600080fd5b82018360208201111561062257600080fd5b8035906020019184600183028401116401000000008311171561064457600080fd5b9193509150356113a3565b61017e6004803603604081101561066557600080fd5b81019060208101813564010000000081111561068057600080fd5b82018360208201111561069257600080fd5b803590602001918460018302840111640100000000831117156106b457600080fd5b919350915035611460565b61033d600480360360408110156106d557600080fd5b8101906020810181356401000000008111156106f057600080fd5b82018360208201111561070257600080fd5b8035906020019184600183028401116401000000008311171561072457600080fd5b9193509150356115e9565b61033d6004803603604081101561074557600080fd5b81019060208101813564010000000081111561076057600080fd5b82018360208201111561077257600080fd5b8035906020019184600183028401116401000000008311171561079457600080fd5b919350915035611697565b61080f600480360360408110156107b557600080fd5b8101906020810181356401000000008111156107d057600080fd5b8201836020820111156107e257600080fd5b8035906020019184600183028401116401000000008311171561080457600080fd5b919350915035611728565b604051808a600381111561081f57fe5b60ff16815261ffff90991660208a015250604080890197909752606088019590955273ffffffffffffffffffffffffffffffffffffffff93841660808801529190921660a086015260c085019190915260e08401526101008301525190819003610120019150f35b61017e6004803603604081101561089d57600080fd5b813591908101906040810160208201356401000000008111156108bf57600080fd5b8201836020820111156108d157600080fd5b803590602001918460018302840111640100000000831117156108f357600080fd5b509092509050611874565b61033d6004803603606081101561091457600080fd5b8135919081019060408101602082013564010000000081111561093657600080fd5b82018360208201111561094857600080fd5b8035906020019184600183028401116401000000008311171561096a57600080fd5b91939092909160208101903564010000000081111561098857600080fd5b82018360208201111561099a57600080fd5b803590602001918460018302840111640100000000831117156109bc57600080fd5b509092509050611907565b61080f600480360360208110156109dd57600080fd5b50356119c4565b61080f600480360360408110156109fa57600080fd5b810190602081018135640100000000811115610a1557600080fd5b820183602082011115610a2757600080fd5b80359060200191846001830284011164010000000083111715610a4957600080fd5b919350915035611ada565b61017e60048036036040811015610a6a57600080fd5b5080359060200135611b79565b61033d60048036036040811015610a8d57600080fd5b81359190810190604081016020820135640100000000811115610aaf57600080fd5b820183602082011115610ac157600080fd5b80359060200191846001830284011164010000000083111715610ae357600080fd5b509092509050611ce8565b61033d60048036036040811015610b0457600080fd5b810190602081018135640100000000811115610b1f57600080fd5b820183602082011115610b3157600080fd5b80359060200191846001830284011164010000000083111715610b5357600080fd5b919350915035611d79565b61033d60048036036060811015610b7457600080fd5b810190602081018135640100000000811115610b8f57600080fd5b820183602082011115610ba157600080fd5b80359060200191846001830284011164010000000083111715610bc357600080fd5b919390929091602081019035640100000000811115610be157600080fd5b820183602082011115610bf357600080fd5b80359060200191846001830284011164010000000083111715610c1557600080fd5b919350915035611e0a565b61033d60048036036080811015610c3657600080fd5b810190602081018135640100000000811115610c5157600080fd5b820183602082011115610c6357600080fd5b80359060200191846001830284011164010000000083111715610c8557600080fd5b919350915073ffffffffffffffffffffffffffffffffffffffff813581169160208101359091169060400135611ec7565b61033d611f99565b604080517f5d91495300000000000000000000000000000000000000000000000000000000815260006004820181905260248201849052915160609273__FsLib1________________________________92635d9149539260448083019392829003018186803b158015610d3157600080fd5b505af4158015610d45573d6000803e3d6000fd5b505050506040513d6000823e601f3d908101601f191682016040526020811015610d6e57600080fd5b8101908080516040519392919084640100000000821115610d8e57600080fd5b908301906020820185811115610da357600080fd5b8251640100000000811182820188101715610dbd57600080fd5b82525081516020918201929091019080838360005b83811015610dea578181015183820152602001610dd2565b50505050905090810190601f168015610e175780820380516001836020036101000a031916815260200191505b506040525050509050919050565b60008073__FsLib_________________________________637e9ec4059091878787876040518663ffffffff1660e060020a02815260040180868152602001806020018481526020018381526020018281038252868682818152602001925080828437600081840152601f19601f820116905080830192505050965050505050505060206040518083038186803b158015610ebf57600080fd5b505af4158015610ed3573d6000803e3d6000fd5b505050506040513d6020811015610ee957600080fd5b505195945050505050565b600073__FsLib1________________________________63ba46d329909187878787876040518763ffffffff1660e060020a0281526004018087815260200180602001806020018481526020018381038352888882818152602001925080828437600083820152601f01601f191690910184810383528681526020019050868680828437600081840152601f19601f8201169050808301925050509850505050505050505060006040518083038186803b158015610fb157600080fd5b505af4158015610fc5573d6000803e3d6000fd5b505050505050505050565b604080517f620bd16200000000000000000000000000000000000000000000000000000000815260006004820181905260248201849052915173__FsLib_________________________________9263620bd1629260448082019391829003018186803b15801561104057600080fd5b505af4158015611054573d6000803e3d6000fd5b5050505050565b600073__FsLib_________________________________6380d0c5c99091868686866040518663ffffffff1660e060020a02815260040180868152602001858152602001806020018381526020018281038252858582818152602001925080828437600081840152601f19601f820116905080830192505050965050505050505060006040518083038186803b1580156110f457600080fd5b505af4158015611108573d6000803e3d6000fd5b5050505050505050565b600073__FsLib1________________________________633943dc4b909187878787876040518763ffffffff1660e060020a0281526004018087815260200180602001806020018481526020018381038352888882818152602001925080828437600083820152601f01601f191690910184810383528681526020019050868680828437600081840152601f19601f8201169050808301925050509850505050505050505060006040518083038186803b158015610fb157600080fd5b604080517faf73c9b5000000000000000000000000000000000000000000000000000000008152600060048201819052915173__FsLib_________________________________9263af73c9b59260248082019391829003018186803b15801561123857600080fd5b505af415801561124c573d6000803e3d6000fd5b50505050565b60008073__FsLib_________________________________63bbcd700d9091878787876040518663ffffffff1660e060020a02815260040180868152602001806020018481526020018381526020018281038252868682818152602001925080828437600081840152601f19601f820116905080830192505050965050505050505060206040518083038186803b158015610ebf57600080fd5b6040517fe176728b00000000000000000000000000000000000000000000000000000000815260006004820181815261ffff85166044840152606483018490526080602484019081526084840187905273__FsLib_________________________________9363e176728b93928992899289928992909160a401868680828437600081840152601f19601f820116905080830192505050965050505050505060006040518083038186803b1580156110f457600080fd5b600073__FsLib1________________________________63e4685dc3909187878787876040518763ffffffff1660e060020a0281526004018087815260200180602001806020018481526020018381038352888882818152602001925080828437600083820152601f01601f191690910184810383528681526020019050868680828437600081840152601f19601f8201169050808301925050509850505050505050505060006040518083038186803b158015610fb157600080fd5b6060600073__FsLib1________________________________63fe94764c90918686866040518563ffffffff1660e060020a02815260040180858152602001806020018381526020018281038252858582818152602001925080828437600081840152601f19601f8201169050808301925050509550505050505060006040518083038186803b1580156114f357600080fd5b505af4158015611507573d6000803e3d6000fd5b505050506040513d6000823e601f3d908101601f19168201604052602081101561153057600080fd5b810190808051604051939291908464010000000082111561155057600080fd5b90830190602082018581111561156557600080fd5b825164010000000081118282018810171561157f57600080fd5b82525081516020918201929091019080838360005b838110156115ac578181015183820152602001611594565b50505050905090810190601f1680156115d95780820380516001836020036101000a031916815260200191505b5060405250505090509392505050565b600073__FsLib_________________________________63881ed2e990918585856040518563ffffffff1660e060020a02815260040180858152602001806020018381526020018281038252858582818152602001925080828437600081840152601f19601f8201169050808301925050509550505050505060006040518083038186803b15801561167a57600080fd5b505af415801561168e573d6000803e3d6000fd5b50505050505050565b600073__FsLib_________________________________632964021890918585856040518563ffffffff1660e060020a02815260040180858152602001806020018381526020018281038252858582818152602001925080828437600081840152601f19601f8201169050808301925050509550505050505060006040518083038186803b15801561167a57600080fd5b60008060008060008060008060008073__FsLib_________________________________63c32e7f6390918e8e8e6040518563ffffffff1660e060020a02815260040180858152602001806020018381526020018281038252858582818152602001925080828437600081840152601f19601f820116905080830192505050955050505050506101206040518083038186803b1580156117c757600080fd5b505af41580156117db573d6000803e3d6000fd5b505050506040513d6101208110156117f257600080fd5b8101908080519060200190929190805190602001909291908051906020019092919080519060200190929190805190602001909291908051906020019092919080519060200190929190805190602001909291908051906020019092919050505098509850985098509850985098509850985093979b92969a50939750939750565b6060600073__FsLib_________________________________638ce487fc90918686866040518563ffffffff1660e060020a02815260040180858152602001848152602001806020018281038252848482818152602001925080828437600081840152601f19601f8201169050808301925050509550505050505060006040518083038186803b1580156114f357600080fd5b600073__FsLib_________________________________63d9d06fcf909187878787876040518763ffffffff1660e060020a0281526004018087815260200186815260200180602001806020018381038352878782818152602001925080828437600083820152601f01601f191690910184810383528581526020019050858580828437600081840152601f19601f8201169050808301925050509850505050505050505060006040518083038186803b158015610fb157600080fd5b60008060008060008060008060008073__FsLib_________________________________637545c66b90918c6040518363ffffffff1660e060020a02815260040180838152602001828152602001925050506101206040518083038186803b158015611a2f57600080fd5b505af4158015611a43573d6000803e3d6000fd5b505050506040513d610120811015611a5a57600080fd5b810190808051906020019092919080519060200190929190805190602001909291908051906020019092919080519060200190929190805190602001909291908051906020019092919080519060200190929190805190602001909291905050509850985098509850985098509850985098509193959799909294969850565b60008060008060008060008060008073__FsLib_________________________________63e738d11a90918e8e8e6040518563ffffffff1660e060020a02815260040180858152602001806020018381526020018281038252858582818152602001925080828437600081840152601f19601f820116905080830192505050955050505050506101206040518083038186803b1580156117c757600080fd5b604080517fe81377980000000000000000000000000000000000000000000000000000000081526000600482018190526024820185905260448201849052915160609273__FsLib_________________________________9263e81377989260648083019392829003018186803b158015611bf357600080fd5b505af4158015611c07573d6000803e3d6000fd5b505050506040513d6000823e601f3d908101601f191682016040526020811015611c3057600080fd5b8101908080516040519392919084640100000000821115611c5057600080fd5b908301906020820185811115611c6557600080fd5b8251640100000000811182820188101715611c7f57600080fd5b82525081516020918201929091019080838360005b83811015611cac578181015183820152602001611c94565b50505050905090810190601f168015611cd95780820380516001836020036101000a031916815260200191505b50604052505050905092915050565b600073__FsLib_________________________________6338ef25ff90918585856040518563ffffffff1660e060020a02815260040180858152602001848152602001806020018281038252848482818152602001925080828437600081840152601f19601f8201169050808301925050509550505050505060006040518083038186803b15801561167a57600080fd5b600073__FsLib_________________________________63785ae79d90918585856040518563ffffffff1660e060020a02815260040180858152602001806020018381526020018281038252858582818152602001925080828437600081840152601f19601f8201169050808301925050509550505050505060006040518083038186803b15801561167a57600080fd5b600073__FsLib1________________________________6356e58c80909187878787876040518763ffffffff1660e060020a0281526004018087815260200180602001806020018481526020018381038352888882818152602001925080828437600083820152601f01601f191690910184810383528681526020019050868680828437600081840152601f19601f8201169050808301925050509850505050505050505060006040518083038186803b158015610fb157600080fd5b6040517fee43b91500000000000000000000000000000000000000000000000000000000815260006004820181815273ffffffffffffffffffffffffffffffffffffffff8087166044850152851660648401526084830184905260a06024840190815260a4840188905273__FsLib_________________________________9363ee43b91593928a928a928a928a928a9260c401878780828437600081840152601f19601f82011690508083019250505097505050505050505060006040518083038186803b158015610fb157600080fd5b604080517f5e35ed27000000000000000000000000000000000000000000000000000000008152600060048201819052915173__FsLib_________________________________92635e35ed279260248082019391829003018186803b15801561123857600080fdfea265627a7a7231582061f2a62e5b45a0b01f1143ed1f86b87c3f68a5b770f3fd2238c984b3056110b564736f6c63430005100032",
  "source": "pragma solidity >= 0.5.8;\n\nimport './FsLib.sol';\nimport './FsLib1.sol';\n\ncontract FsDisk is FileSystem {\n  using FsLib for FsLib.Disk;\n  using FsLib1 for FsLib.Disk;\n  FsLib.Disk m_disk;\n\n  constructor() public {\n    m_disk.init();\n  }\n\n  function mount() external {\n    m_disk.mount();\n  }\n\n  function unmount() external {\n    m_disk.unmount();\n  }\n\n  function dirInodeToPath(uint ino) external view returns (bytes memory) {\n    return m_disk.dirInodeToPath(ino);\n  }\n\n  function open(bytes calldata path, uint curdir, uint flags) external returns (uint) {\n    return m_disk.open(path, curdir, flags);\n  }\n\n  function openOnly(bytes calldata path, uint curdir, uint flags) external view returns (uint) {\n    return m_disk.openOnly(path, curdir, flags);\n  }\n\n  function close(uint ino) external {\n    m_disk.close(ino);\n  }\n\n  function readkey(uint ino, uint index) external view returns (bytes memory) {\n    return m_disk.readkey(ino, index);\n  }\n\n  function read(uint ino, bytes calldata key) external view returns (bytes memory) {\n    return m_disk.read(ino, key);\n  }\n\n  function write(uint ino, bytes calldata key, bytes calldata value) external {\n    m_disk.write(ino, key, value);\n  }\n\n  function truncate(uint ino, bytes calldata key, uint len) external {\n    m_disk.truncate(ino, key, len);\n  }\n\n  function clear(uint ino, bytes calldata key) external {\n    m_disk.clear(ino, key);\n  }\n\n  function link(bytes calldata source, bytes calldata target, uint curdir) external {\n    m_disk.link(source, target, curdir);\n  }\n\n  function unlink(bytes calldata path, uint curdir) external {\n    m_disk.unlink(path, curdir);\n  }\n\n  function symlink(bytes calldata source, bytes calldata target, uint curdir) external {\n    m_disk.symlink(source, target, curdir);\n  }\n\n  function readlink(bytes calldata path, uint curdir) external view returns (bytes memory) {\n    return m_disk.readlink(path, curdir);\n  }\n\n  function move(bytes calldata source, bytes calldata target, uint curdir) external {\n    m_disk.move(source, target, curdir);\n  }\n\n  function copy(bytes calldata source, bytes calldata target, uint curdir) external {\n    m_disk.copy(source, target, curdir);\n  }\n\n  function chown(bytes calldata path, address owner, address group, uint curdir) external {\n    m_disk.chown(path, owner, group, curdir);\n  }\n\n  function chmod(bytes calldata path, uint16 mode, uint curdir) external {\n    m_disk.chmod(path, mode, curdir);\n  }\n\n  function mkdir(bytes calldata path, uint curdir) external {\n    m_disk.mkdir(path, curdir);\n  }\n\n  function rmdir(bytes calldata path, uint curdir) external {\n    m_disk.rmdir(path, curdir);\n  }\n\n  function stat(bytes calldata path, uint curdir) external view returns (FileType fileType, uint16 mode, uint ino_, uint links, address owner, address group, uint entries, uint size, uint lastModified) {\n    return m_disk.stat(path, curdir);\n  }\n\n  function lstat(bytes calldata path, uint curdir) external view returns (FileType fileType, uint16 mode, uint ino_, uint links, address owner, address group, uint entries, uint size, uint lastModified) {\n    return m_disk.lstat(path, curdir);\n  }\n\n  function fstat(uint ino) external view returns (FileType fileType, uint16 mode, uint ino_, uint links, address owner, address group, uint entries, uint size, uint lastModified) {\n    return m_disk.fstat(ino);\n  }\n}\n",
  "sourcePath": "/home/hector/ethfs/contracts/kernel/FsDisk.sol",
  "compiler": {
    "name": "solc",
    "version": "0.5.16+commit.9c3226ce.Emscripten.clang"
  },
  "schemaVersion": "3.1.0",
  "updatedAt": "2020-04-16T18:57:12.279Z",
  "networkType": "ethereum",
  "devdoc": {
    "methods": {}
  },
  "userdoc": {
    "methods": {}
  }
}