{
  "contractName": "FsDisk",
  "abi": [
    {
      "inputs": [],
      "payable": false,
      "stateMutability": "nonpayable",
      "type": "constructor"
    },
    {
      "constant": false,
      "inputs": [],
      "name": "mount",
      "outputs": [],
      "payable": false,
      "stateMutability": "nonpayable",
      "type": "function"
    },
    {
      "constant": false,
      "inputs": [],
      "name": "unmount",
      "outputs": [],
      "payable": false,
      "stateMutability": "nonpayable",
      "type": "function"
    },
    {
      "constant": true,
      "inputs": [
        {
          "name": "ino",
          "type": "uint256"
        }
      ],
      "name": "dirInodeToPath",
      "outputs": [
        {
          "name": "",
          "type": "bytes"
        }
      ],
      "payable": false,
      "stateMutability": "view",
      "type": "function"
    },
    {
      "constant": false,
      "inputs": [
        {
          "name": "path",
          "type": "bytes"
        },
        {
          "name": "curdir",
          "type": "uint256"
        },
        {
          "name": "flags",
          "type": "uint256"
        }
      ],
      "name": "open",
      "outputs": [
        {
          "name": "",
          "type": "uint256"
        }
      ],
      "payable": false,
      "stateMutability": "nonpayable",
      "type": "function"
    },
    {
      "constant": true,
      "inputs": [
        {
          "name": "path",
          "type": "bytes"
        },
        {
          "name": "curdir",
          "type": "uint256"
        },
        {
          "name": "flags",
          "type": "uint256"
        }
      ],
      "name": "openOnly",
      "outputs": [
        {
          "name": "",
          "type": "uint256"
        }
      ],
      "payable": false,
      "stateMutability": "view",
      "type": "function"
    },
    {
      "constant": false,
      "inputs": [
        {
          "name": "ino",
          "type": "uint256"
        }
      ],
      "name": "close",
      "outputs": [],
      "payable": false,
      "stateMutability": "nonpayable",
      "type": "function"
    },
    {
      "constant": true,
      "inputs": [
        {
          "name": "ino",
          "type": "uint256"
        },
        {
          "name": "index",
          "type": "uint256"
        }
      ],
      "name": "readkey",
      "outputs": [
        {
          "name": "",
          "type": "bytes"
        }
      ],
      "payable": false,
      "stateMutability": "view",
      "type": "function"
    },
    {
      "constant": true,
      "inputs": [
        {
          "name": "ino",
          "type": "uint256"
        },
        {
          "name": "key",
          "type": "bytes"
        }
      ],
      "name": "read",
      "outputs": [
        {
          "name": "",
          "type": "bytes"
        }
      ],
      "payable": false,
      "stateMutability": "view",
      "type": "function"
    },
    {
      "constant": false,
      "inputs": [
        {
          "name": "ino",
          "type": "uint256"
        },
        {
          "name": "key",
          "type": "bytes"
        },
        {
          "name": "value",
          "type": "bytes"
        }
      ],
      "name": "write",
      "outputs": [],
      "payable": false,
      "stateMutability": "nonpayable",
      "type": "function"
    },
    {
      "constant": false,
      "inputs": [
        {
          "name": "ino",
          "type": "uint256"
        },
        {
          "name": "key",
          "type": "bytes"
        },
        {
          "name": "len",
          "type": "uint256"
        }
      ],
      "name": "truncate",
      "outputs": [],
      "payable": false,
      "stateMutability": "nonpayable",
      "type": "function"
    },
    {
      "constant": false,
      "inputs": [
        {
          "name": "ino",
          "type": "uint256"
        },
        {
          "name": "key",
          "type": "bytes"
        }
      ],
      "name": "clear",
      "outputs": [],
      "payable": false,
      "stateMutability": "nonpayable",
      "type": "function"
    },
    {
      "constant": false,
      "inputs": [
        {
          "name": "source",
          "type": "bytes"
        },
        {
          "name": "target",
          "type": "bytes"
        },
        {
          "name": "curdir",
          "type": "uint256"
        }
      ],
      "name": "link",
      "outputs": [],
      "payable": false,
      "stateMutability": "nonpayable",
      "type": "function"
    },
    {
      "constant": false,
      "inputs": [
        {
          "name": "path",
          "type": "bytes"
        },
        {
          "name": "curdir",
          "type": "uint256"
        }
      ],
      "name": "unlink",
      "outputs": [],
      "payable": false,
      "stateMutability": "nonpayable",
      "type": "function"
    },
    {
      "constant": false,
      "inputs": [
        {
          "name": "source",
          "type": "bytes"
        },
        {
          "name": "target",
          "type": "bytes"
        },
        {
          "name": "curdir",
          "type": "uint256"
        }
      ],
      "name": "symlink",
      "outputs": [],
      "payable": false,
      "stateMutability": "nonpayable",
      "type": "function"
    },
    {
      "constant": true,
      "inputs": [
        {
          "name": "path",
          "type": "bytes"
        },
        {
          "name": "curdir",
          "type": "uint256"
        }
      ],
      "name": "readlink",
      "outputs": [
        {
          "name": "",
          "type": "bytes"
        }
      ],
      "payable": false,
      "stateMutability": "view",
      "type": "function"
    },
    {
      "constant": false,
      "inputs": [
        {
          "name": "source",
          "type": "bytes"
        },
        {
          "name": "target",
          "type": "bytes"
        },
        {
          "name": "curdir",
          "type": "uint256"
        }
      ],
      "name": "move",
      "outputs": [],
      "payable": false,
      "stateMutability": "nonpayable",
      "type": "function"
    },
    {
      "constant": false,
      "inputs": [
        {
          "name": "source",
          "type": "bytes"
        },
        {
          "name": "target",
          "type": "bytes"
        },
        {
          "name": "curdir",
          "type": "uint256"
        }
      ],
      "name": "copy",
      "outputs": [],
      "payable": false,
      "stateMutability": "nonpayable",
      "type": "function"
    },
    {
      "constant": false,
      "inputs": [
        {
          "name": "path",
          "type": "bytes"
        },
        {
          "name": "owner",
          "type": "address"
        },
        {
          "name": "group",
          "type": "address"
        },
        {
          "name": "curdir",
          "type": "uint256"
        }
      ],
      "name": "chown",
      "outputs": [],
      "payable": false,
      "stateMutability": "nonpayable",
      "type": "function"
    },
    {
      "constant": false,
      "inputs": [
        {
          "name": "path",
          "type": "bytes"
        },
        {
          "name": "mode",
          "type": "uint16"
        },
        {
          "name": "curdir",
          "type": "uint256"
        }
      ],
      "name": "chmod",
      "outputs": [],
      "payable": false,
      "stateMutability": "nonpayable",
      "type": "function"
    },
    {
      "constant": false,
      "inputs": [
        {
          "name": "path",
          "type": "bytes"
        },
        {
          "name": "curdir",
          "type": "uint256"
        }
      ],
      "name": "mkdir",
      "outputs": [],
      "payable": false,
      "stateMutability": "nonpayable",
      "type": "function"
    },
    {
      "constant": false,
      "inputs": [
        {
          "name": "path",
          "type": "bytes"
        },
        {
          "name": "curdir",
          "type": "uint256"
        }
      ],
      "name": "rmdir",
      "outputs": [],
      "payable": false,
      "stateMutability": "nonpayable",
      "type": "function"
    },
    {
      "constant": true,
      "inputs": [
        {
          "name": "path",
          "type": "bytes"
        },
        {
          "name": "curdir",
          "type": "uint256"
        }
      ],
      "name": "stat",
      "outputs": [
        {
          "name": "fileType",
          "type": "uint8"
        },
        {
          "name": "mode",
          "type": "uint16"
        },
        {
          "name": "ino_",
          "type": "uint256"
        },
        {
          "name": "links",
          "type": "uint256"
        },
        {
          "name": "owner",
          "type": "address"
        },
        {
          "name": "group",
          "type": "address"
        },
        {
          "name": "entries",
          "type": "uint256"
        },
        {
          "name": "size",
          "type": "uint256"
        },
        {
          "name": "lastModified",
          "type": "uint256"
        }
      ],
      "payable": false,
      "stateMutability": "view",
      "type": "function"
    },
    {
      "constant": true,
      "inputs": [
        {
          "name": "path",
          "type": "bytes"
        },
        {
          "name": "curdir",
          "type": "uint256"
        }
      ],
      "name": "lstat",
      "outputs": [
        {
          "name": "fileType",
          "type": "uint8"
        },
        {
          "name": "mode",
          "type": "uint16"
        },
        {
          "name": "ino_",
          "type": "uint256"
        },
        {
          "name": "links",
          "type": "uint256"
        },
        {
          "name": "owner",
          "type": "address"
        },
        {
          "name": "group",
          "type": "address"
        },
        {
          "name": "entries",
          "type": "uint256"
        },
        {
          "name": "size",
          "type": "uint256"
        },
        {
          "name": "lastModified",
          "type": "uint256"
        }
      ],
      "payable": false,
      "stateMutability": "view",
      "type": "function"
    },
    {
      "constant": true,
      "inputs": [
        {
          "name": "ino",
          "type": "uint256"
        }
      ],
      "name": "fstat",
      "outputs": [
        {
          "name": "fileType",
          "type": "uint8"
        },
        {
          "name": "mode",
          "type": "uint16"
        },
        {
          "name": "ino_",
          "type": "uint256"
        },
        {
          "name": "links",
          "type": "uint256"
        },
        {
          "name": "owner",
          "type": "address"
        },
        {
          "name": "group",
          "type": "address"
        },
        {
          "name": "entries",
          "type": "uint256"
        },
        {
          "name": "size",
          "type": "uint256"
        },
        {
          "name": "lastModified",
          "type": "uint256"
        }
      ],
      "payable": false,
      "stateMutability": "view",
      "type": "function"
    }
  ],
  "bytecode": "0x608060405234801561001057600080fd5b50600073__FsLib_________________________________634acea0a190916040518263ffffffff1660e01b81526004018082815260200191505060006040518083038186803b15801561006357600080fd5b505af4158015610077573d6000803e3d6000fd5b505050506126698061008a6000396000f3fe608060405234801561001057600080fd5b50600436106101585760003560e01c806377943242116100c3578063c4701cca1161007c578063c4701cca14610e5c578063c5cdd83e14610f0d578063c9cea11e14610f90578063d352ec1114611013578063e67dfd62146110eb578063eef81ed0146111ae57610158565b806377943242146108a357806377cfb08a14610926578063829e736914610a63578063a562b13514610b5f578063b9e4bbb314610c37578063bfb8bc4414610d1f57610158565b806323675a5b1161011557806323675a5b146105105780632e95c26f1461051a57806340c6f5ff146105bb5780636226a6961461064c57806368b848951461072457806371baaebc1461082057610158565b806301328b7c1461015d57806304733f571461020457806305f3b55e146102a55780630aebeb4e1461037d5780630d28a6af146103ab5780631337a7c814610438575b600080fd5b6101896004803603602081101561017357600080fd5b81019080803590602001909291905050506111b8565b6040518080602001828103825283818151815260200191508051906020019080838360005b838110156101c95780820151818401526020810190506101ae565b50505050905090810190601f1680156101f65780820380516001836020036101000a031916815260200191505b509250505060405180910390f35b61028f6004803603606081101561021a57600080fd5b810190808035906020019064010000000081111561023757600080fd5b82018360208201111561024957600080fd5b8035906020019184600183028401116401000000008311171561026b57600080fd5b909192939192939080359060200190929190803590602001909291905050506112ac565b6040518082815260200191505060405180910390f35b61037b600480360360608110156102bb57600080fd5b81019080803590602001906401000000008111156102d857600080fd5b8201836020820111156102ea57600080fd5b8035906020019184600183028401116401000000008311171561030c57600080fd5b90919293919293908035906020019064010000000081111561032d57600080fd5b82018360208201111561033f57600080fd5b8035906020019184600183028401116401000000008311171561036157600080fd5b909192939192939080359060200190929190505050611388565b005b6103a96004803603602081101561039357600080fd5b8101908080359060200190929190505050611469565b005b610436600480360360608110156103c157600080fd5b8101908080359060200190929190803590602001906401000000008111156103e857600080fd5b8201836020820111156103fa57600080fd5b8035906020019184600183028401116401000000008311171561041c57600080fd5b9091929391929390803590602001909291905050506114de565b005b61050e6004803603606081101561044e57600080fd5b810190808035906020019064010000000081111561046b57600080fd5b82018360208201111561047d57600080fd5b8035906020019184600183028401116401000000008311171561049f57600080fd5b9091929391929390803590602001906401000000008111156104c057600080fd5b8201836020820111156104d257600080fd5b803590602001918460018302840111640100000000831117156104f457600080fd5b909192939192939080359060200190929190505050611592565b005b610518611673565b005b6105a56004803603606081101561053057600080fd5b810190808035906020019064010000000081111561054d57600080fd5b82018360208201111561055f57600080fd5b8035906020019184600183028401116401000000008311171561058157600080fd5b909192939192939080359060200190929190803590602001909291905050506116df565b6040518082815260200191505060405180910390f35b61064a600480360360608110156105d157600080fd5b81019080803590602001906401000000008111156105ee57600080fd5b82018360208201111561060057600080fd5b8035906020019184600183028401116401000000008311171561062257600080fd5b9091929391929390803561ffff169060200190929190803590602001909291905050506117bb565b005b6107226004803603606081101561066257600080fd5b810190808035906020019064010000000081111561067f57600080fd5b82018360208201111561069157600080fd5b803590602001918460018302840111640100000000831117156106b357600080fd5b9091929391929390803590602001906401000000008111156106d457600080fd5b8201836020820111156106e657600080fd5b8035906020019184600183028401116401000000008311171561070857600080fd5b909192939192939080359060200190929190505050611877565b005b6107a56004803603604081101561073a57600080fd5b810190808035906020019064010000000081111561075757600080fd5b82018360208201111561076957600080fd5b8035906020019184600183028401116401000000008311171561078b57600080fd5b909192939192939080359060200190929190505050611958565b6040518080602001828103825283818151815260200191508051906020019080838360005b838110156107e55780820151818401526020810190506107ca565b50505050905090810190601f1680156108125780820380516001836020036101000a031916815260200191505b509250505060405180910390f35b6108a16004803603604081101561083657600080fd5b810190808035906020019064010000000081111561085357600080fd5b82018360208201111561086557600080fd5b8035906020019184600183028401116401000000008311171561088757600080fd5b909192939192939080359060200190929190505050611a82565b005b610924600480360360408110156108b957600080fd5b81019080803590602001906401000000008111156108d657600080fd5b8201836020820111156108e857600080fd5b8035906020019184600183028401116401000000008311171561090a57600080fd5b909192939192939080359060200190929190505050611b2d565b005b6109a76004803603604081101561093c57600080fd5b810190808035906020019064010000000081111561095957600080fd5b82018360208201111561096b57600080fd5b8035906020019184600183028401116401000000008311171561098d57600080fd5b909192939192939080359060200190929190505050611bd8565b604051808a60038111156109b757fe5b60ff1681526020018961ffff1661ffff1681526020018881526020018781526020018673ffffffffffffffffffffffffffffffffffffffff1673ffffffffffffffffffffffffffffffffffffffff1681526020018573ffffffffffffffffffffffffffffffffffffffff1673ffffffffffffffffffffffffffffffffffffffff168152602001848152602001838152602001828152602001995050505050505050505060405180910390f35b610ae460048036036040811015610a7957600080fd5b810190808035906020019092919080359060200190640100000000811115610aa057600080fd5b820183602082011115610ab257600080fd5b80359060200191846001830284011164010000000083111715610ad457600080fd5b9091929391929390505050611d21565b6040518080602001828103825283818151815260200191508051906020019080838360005b83811015610b24578082015181840152602081019050610b09565b50505050905090810190601f168015610b515780820380516001836020036101000a031916815260200191505b509250505060405180910390f35b610c3560048036036060811015610b7557600080fd5b810190808035906020019092919080359060200190640100000000811115610b9c57600080fd5b820183602082011115610bae57600080fd5b80359060200191846001830284011164010000000083111715610bd057600080fd5b909192939192939080359060200190640100000000811115610bf157600080fd5b820183602082011115610c0357600080fd5b80359060200191846001830284011164010000000083111715610c2557600080fd5b9091929391929390505050611e4b565b005b610c6360048036036020811015610c4d57600080fd5b8101908080359060200190929190505050611f2c565b604051808a6003811115610c7357fe5b60ff1681526020018961ffff1661ffff1681526020018881526020018781526020018673ffffffffffffffffffffffffffffffffffffffff1673ffffffffffffffffffffffffffffffffffffffff1681526020018573ffffffffffffffffffffffffffffffffffffffff1673ffffffffffffffffffffffffffffffffffffffff168152602001848152602001838152602001828152602001995050505050505050505060405180910390f35b610da060048036036040811015610d3557600080fd5b8101908080359060200190640100000000811115610d5257600080fd5b820183602082011115610d6457600080fd5b80359060200191846001830284011164010000000083111715610d8657600080fd5b90919293919293908035906020019092919050505061203f565b604051808a6003811115610db057fe5b60ff1681526020018961ffff1661ffff1681526020018881526020018781526020018673ffffffffffffffffffffffffffffffffffffffff1673ffffffffffffffffffffffffffffffffffffffff1681526020018573ffffffffffffffffffffffffffffffffffffffff1673ffffffffffffffffffffffffffffffffffffffff168152602001848152602001838152602001828152602001995050505050505050505060405180910390f35b610e9260048036036040811015610e7257600080fd5b810190808035906020019092919080359060200190929190505050612188565b6040518080602001828103825283818151815260200191508051906020019080838360005b83811015610ed2578082015181840152602081019050610eb7565b50505050905090810190601f168015610eff5780820380516001836020036101000a031916815260200191505b509250505060405180910390f35b610f8e60048036036040811015610f2357600080fd5b810190808035906020019092919080359060200190640100000000811115610f4a57600080fd5b820183602082011115610f5c57600080fd5b80359060200191846001830284011164010000000083111715610f7e57600080fd5b9091929391929390505050612285565b005b61101160048036036040811015610fa657600080fd5b8101908080359060200190640100000000811115610fc357600080fd5b820183602082011115610fd557600080fd5b80359060200191846001830284011164010000000083111715610ff757600080fd5b909192939192939080359060200190929190505050612330565b005b6110e96004803603606081101561102957600080fd5b810190808035906020019064010000000081111561104657600080fd5b82018360208201111561105857600080fd5b8035906020019184600183028401116401000000008311171561107a57600080fd5b90919293919293908035906020019064010000000081111561109b57600080fd5b8201836020820111156110ad57600080fd5b803590602001918460018302840111640100000000831117156110cf57600080fd5b9091929391929390803590602001909291905050506123db565b005b6111ac6004803603608081101561110157600080fd5b810190808035906020019064010000000081111561111e57600080fd5b82018360208201111561113057600080fd5b8035906020019184600183028401116401000000008311171561115257600080fd5b9091929391929390803573ffffffffffffffffffffffffffffffffffffffff169060200190929190803573ffffffffffffffffffffffffffffffffffffffff169060200190929190803590602001909291905050506124bc565b005b6111b66125d1565b005b6060600073__FsLib1________________________________635d9149539091846040518363ffffffff1660e01b8152600401808381526020018281526020019250505060006040518083038186803b15801561121457600080fd5b505af4158015611228573d6000803e3d6000fd5b505050506040513d6000823e3d601f19601f82011682018060405250602081101561125257600080fd5b81019080805164010000000081111561126a57600080fd5b8281019050602081018481111561128057600080fd5b815185600182028301116401000000008211171561129d57600080fd5b50509291905050509050919050565b60008073__FsLib_________________________________637e9ec4059091878787876040518663ffffffff1660e01b815260040180868152602001806020018481526020018381526020018281038252868682818152602001925080828437600081840152601f19601f820116905080830192505050965050505050505060206040518083038186803b15801561134357600080fd5b505af4158015611357573d6000803e3d6000fd5b505050506040513d602081101561136d57600080fd5b81019080805190602001909291905050509050949350505050565b600073__FsLib1________________________________63ba46d329909187878787876040518763ffffffff1660e01b81526004018087815260200180602001806020018481526020018381038352888882818152602001925080828437600081840152601f19601f8201169050808301925050508381038252868682818152602001925080828437600081840152601f19601f8201169050808301925050509850505050505050505060006040518083038186803b15801561144a57600080fd5b505af415801561145e573d6000803e3d6000fd5b505050505050505050565b600073__FsLib_________________________________63620bd1629091836040518363ffffffff1660e01b8152600401808381526020018281526020019250505060006040518083038186803b1580156114c357600080fd5b505af41580156114d7573d6000803e3d6000fd5b5050505050565b600073__FsLib_________________________________6380d0c5c99091868686866040518663ffffffff1660e01b815260040180868152602001858152602001806020018381526020018281038252858582818152602001925080828437600081840152601f19601f820116905080830192505050965050505050505060006040518083038186803b15801561157457600080fd5b505af4158015611588573d6000803e3d6000fd5b5050505050505050565b600073__FsLib1________________________________633943dc4b909187878787876040518763ffffffff1660e01b81526004018087815260200180602001806020018481526020018381038352888882818152602001925080828437600081840152601f19601f8201169050808301925050508381038252868682818152602001925080828437600081840152601f19601f8201169050808301925050509850505050505050505060006040518083038186803b15801561165457600080fd5b505af4158015611668573d6000803e3d6000fd5b505050505050505050565b600073__FsLib_________________________________63af73c9b590916040518263ffffffff1660e01b81526004018082815260200191505060006040518083038186803b1580156116c557600080fd5b505af41580156116d9573d6000803e3d6000fd5b50505050565b60008073__FsLib_________________________________63bbcd700d9091878787876040518663ffffffff1660e01b815260040180868152602001806020018481526020018381526020018281038252868682818152602001925080828437600081840152601f19601f820116905080830192505050965050505050505060206040518083038186803b15801561177657600080fd5b505af415801561178a573d6000803e3d6000fd5b505050506040513d60208110156117a057600080fd5b81019080805190602001909291905050509050949350505050565b600073__FsLib_________________________________63e176728b9091868686866040518663ffffffff1660e01b815260040180868152602001806020018461ffff1661ffff1681526020018381526020018281038252868682818152602001925080828437600081840152601f19601f820116905080830192505050965050505050505060006040518083038186803b15801561185957600080fd5b505af415801561186d573d6000803e3d6000fd5b5050505050505050565b600073__FsLib1________________________________63e4685dc3909187878787876040518763ffffffff1660e01b81526004018087815260200180602001806020018481526020018381038352888882818152602001925080828437600081840152601f19601f8201169050808301925050508381038252868682818152602001925080828437600081840152601f19601f8201169050808301925050509850505050505050505060006040518083038186803b15801561193957600080fd5b505af415801561194d573d6000803e3d6000fd5b505050505050505050565b6060600073__FsLib1________________________________63fe94764c90918686866040518563ffffffff1660e01b815260040180858152602001806020018381526020018281038252858582818152602001925080828437600081840152601f19601f8201169050808301925050509550505050505060006040518083038186803b1580156119e857600080fd5b505af41580156119fc573d6000803e3d6000fd5b505050506040513d6000823e3d601f19601f820116820180604052506020811015611a2657600080fd5b810190808051640100000000811115611a3e57600080fd5b82810190506020810184811115611a5457600080fd5b8151856001820283011164010000000082111715611a7157600080fd5b505092919050505090509392505050565b600073__FsLib_________________________________63881ed2e990918585856040518563ffffffff1660e01b815260040180858152602001806020018381526020018281038252858582818152602001925080828437600081840152601f19601f8201169050808301925050509550505050505060006040518083038186803b158015611b1057600080fd5b505af4158015611b24573d6000803e3d6000fd5b50505050505050565b600073__FsLib_________________________________632964021890918585856040518563ffffffff1660e01b815260040180858152602001806020018381526020018281038252858582818152602001925080828437600081840152601f19601f8201169050808301925050509550505050505060006040518083038186803b158015611bbb57600080fd5b505af4158015611bcf573d6000803e3d6000fd5b50505050505050565b60008060008060008060008060008073__FsLib_________________________________63c32e7f6390918e8e8e6040518563ffffffff1660e01b815260040180858152602001806020018381526020018281038252858582818152602001925080828437600081840152601f19601f820116905080830192505050955050505050506101206040518083038186803b158015611c7457600080fd5b505af4158015611c88573d6000803e3d6000fd5b505050506040513d610120811015611c9f57600080fd5b8101908080519060200190929190805190602001909291908051906020019092919080519060200190929190805190602001909291908051906020019092919080519060200190929190805190602001909291908051906020019092919050505098509850985098509850985098509850985093979b92969a50939750939750565b6060600073__FsLib_________________________________638ce487fc90918686866040518563ffffffff1660e01b815260040180858152602001848152602001806020018281038252848482818152602001925080828437600081840152601f19601f8201169050808301925050509550505050505060006040518083038186803b158015611db157600080fd5b505af4158015611dc5573d6000803e3d6000fd5b505050506040513d6000823e3d601f19601f820116820180604052506020811015611def57600080fd5b810190808051640100000000811115611e0757600080fd5b82810190506020810184811115611e1d57600080fd5b8151856001820283011164010000000082111715611e3a57600080fd5b505092919050505090509392505050565b600073__FsLib_________________________________63d9d06fcf909187878787876040518763ffffffff1660e01b81526004018087815260200186815260200180602001806020018381038352878782818152602001925080828437600081840152601f19601f8201169050808301925050508381038252858582818152602001925080828437600081840152601f19601f8201169050808301925050509850505050505050505060006040518083038186803b158015611f0d57600080fd5b505af4158015611f21573d6000803e3d6000fd5b505050505050505050565b60008060008060008060008060008073__FsLib_________________________________637545c66b90918c6040518363ffffffff1660e01b815260040180838152602001828152602001925050506101206040518083038186803b158015611f9457600080fd5b505af4158015611fa8573d6000803e3d6000fd5b505050506040513d610120811015611fbf57600080fd5b810190808051906020019092919080519060200190929190805190602001909291908051906020019092919080519060200190929190805190602001909291908051906020019092919080519060200190929190805190602001909291905050509850985098509850985098509850985098509193959799909294969850565b60008060008060008060008060008073__FsLib_________________________________63e738d11a90918e8e8e6040518563ffffffff1660e01b815260040180858152602001806020018381526020018281038252858582818152602001925080828437600081840152601f19601f820116905080830192505050955050505050506101206040518083038186803b1580156120db57600080fd5b505af41580156120ef573d6000803e3d6000fd5b505050506040513d61012081101561210657600080fd5b8101908080519060200190929190805190602001909291908051906020019092919080519060200190929190805190602001909291908051906020019092919080519060200190929190805190602001909291908051906020019092919050505098509850985098509850985098509850985093979b92969a50939750939750565b6060600073__FsLib_________________________________63e8137798909185856040518463ffffffff1660e01b815260040180848152602001838152602001828152602001935050505060006040518083038186803b1580156121ec57600080fd5b505af4158015612200573d6000803e3d6000fd5b505050506040513d6000823e3d601f19601f82011682018060405250602081101561222a57600080fd5b81019080805164010000000081111561224257600080fd5b8281019050602081018481111561225857600080fd5b815185600182028301116401000000008211171561227557600080fd5b5050929190505050905092915050565b600073__FsLib_________________________________6338ef25ff90918585856040518563ffffffff1660e01b815260040180858152602001848152602001806020018281038252848482818152602001925080828437600081840152601f19601f8201169050808301925050509550505050505060006040518083038186803b15801561231357600080fd5b505af4158015612327573d6000803e3d6000fd5b50505050505050565b600073__FsLib_________________________________63785ae79d90918585856040518563ffffffff1660e01b815260040180858152602001806020018381526020018281038252858582818152602001925080828437600081840152601f19601f8201169050808301925050509550505050505060006040518083038186803b1580156123be57600080fd5b505af41580156123d2573d6000803e3d6000fd5b50505050505050565b600073__FsLib1________________________________6356e58c80909187878787876040518763ffffffff1660e01b81526004018087815260200180602001806020018481526020018381038352888882818152602001925080828437600081840152601f19601f8201169050808301925050508381038252868682818152602001925080828437600081840152601f19601f8201169050808301925050509850505050505050505060006040518083038186803b15801561249d57600080fd5b505af41580156124b1573d6000803e3d6000fd5b505050505050505050565b600073__FsLib1________________________________63ee43b915909187878787876040518763ffffffff1660e01b815260040180878152602001806020018573ffffffffffffffffffffffffffffffffffffffff1673ffffffffffffffffffffffffffffffffffffffff1681526020018473ffffffffffffffffffffffffffffffffffffffff1673ffffffffffffffffffffffffffffffffffffffff1681526020018381526020018281038252878782818152602001925080828437600081840152601f19601f82011690508083019250505097505050505050505060006040518083038186803b1580156125b257600080fd5b505af41580156125c6573d6000803e3d6000fd5b505050505050505050565b600073__FsLib_________________________________635e35ed2790916040518263ffffffff1660e01b81526004018082815260200191505060006040518083038186803b15801561262357600080fd5b505af4158015612637573d6000803e3d6000fd5b5050505056fea165627a7a72305820c1a4c4fda0a415ef9727b454cec4f2a51304afbbaffdefc055c2e7a96cfb247b0029",
  "deployedBytecode": "0x608060405234801561001057600080fd5b50600436106101585760003560e01c806377943242116100c3578063c4701cca1161007c578063c4701cca14610e5c578063c5cdd83e14610f0d578063c9cea11e14610f90578063d352ec1114611013578063e67dfd62146110eb578063eef81ed0146111ae57610158565b806377943242146108a357806377cfb08a14610926578063829e736914610a63578063a562b13514610b5f578063b9e4bbb314610c37578063bfb8bc4414610d1f57610158565b806323675a5b1161011557806323675a5b146105105780632e95c26f1461051a57806340c6f5ff146105bb5780636226a6961461064c57806368b848951461072457806371baaebc1461082057610158565b806301328b7c1461015d57806304733f571461020457806305f3b55e146102a55780630aebeb4e1461037d5780630d28a6af146103ab5780631337a7c814610438575b600080fd5b6101896004803603602081101561017357600080fd5b81019080803590602001909291905050506111b8565b6040518080602001828103825283818151815260200191508051906020019080838360005b838110156101c95780820151818401526020810190506101ae565b50505050905090810190601f1680156101f65780820380516001836020036101000a031916815260200191505b509250505060405180910390f35b61028f6004803603606081101561021a57600080fd5b810190808035906020019064010000000081111561023757600080fd5b82018360208201111561024957600080fd5b8035906020019184600183028401116401000000008311171561026b57600080fd5b909192939192939080359060200190929190803590602001909291905050506112ac565b6040518082815260200191505060405180910390f35b61037b600480360360608110156102bb57600080fd5b81019080803590602001906401000000008111156102d857600080fd5b8201836020820111156102ea57600080fd5b8035906020019184600183028401116401000000008311171561030c57600080fd5b90919293919293908035906020019064010000000081111561032d57600080fd5b82018360208201111561033f57600080fd5b8035906020019184600183028401116401000000008311171561036157600080fd5b909192939192939080359060200190929190505050611388565b005b6103a96004803603602081101561039357600080fd5b8101908080359060200190929190505050611469565b005b610436600480360360608110156103c157600080fd5b8101908080359060200190929190803590602001906401000000008111156103e857600080fd5b8201836020820111156103fa57600080fd5b8035906020019184600183028401116401000000008311171561041c57600080fd5b9091929391929390803590602001909291905050506114de565b005b61050e6004803603606081101561044e57600080fd5b810190808035906020019064010000000081111561046b57600080fd5b82018360208201111561047d57600080fd5b8035906020019184600183028401116401000000008311171561049f57600080fd5b9091929391929390803590602001906401000000008111156104c057600080fd5b8201836020820111156104d257600080fd5b803590602001918460018302840111640100000000831117156104f457600080fd5b909192939192939080359060200190929190505050611592565b005b610518611673565b005b6105a56004803603606081101561053057600080fd5b810190808035906020019064010000000081111561054d57600080fd5b82018360208201111561055f57600080fd5b8035906020019184600183028401116401000000008311171561058157600080fd5b909192939192939080359060200190929190803590602001909291905050506116df565b6040518082815260200191505060405180910390f35b61064a600480360360608110156105d157600080fd5b81019080803590602001906401000000008111156105ee57600080fd5b82018360208201111561060057600080fd5b8035906020019184600183028401116401000000008311171561062257600080fd5b9091929391929390803561ffff169060200190929190803590602001909291905050506117bb565b005b6107226004803603606081101561066257600080fd5b810190808035906020019064010000000081111561067f57600080fd5b82018360208201111561069157600080fd5b803590602001918460018302840111640100000000831117156106b357600080fd5b9091929391929390803590602001906401000000008111156106d457600080fd5b8201836020820111156106e657600080fd5b8035906020019184600183028401116401000000008311171561070857600080fd5b909192939192939080359060200190929190505050611877565b005b6107a56004803603604081101561073a57600080fd5b810190808035906020019064010000000081111561075757600080fd5b82018360208201111561076957600080fd5b8035906020019184600183028401116401000000008311171561078b57600080fd5b909192939192939080359060200190929190505050611958565b6040518080602001828103825283818151815260200191508051906020019080838360005b838110156107e55780820151818401526020810190506107ca565b50505050905090810190601f1680156108125780820380516001836020036101000a031916815260200191505b509250505060405180910390f35b6108a16004803603604081101561083657600080fd5b810190808035906020019064010000000081111561085357600080fd5b82018360208201111561086557600080fd5b8035906020019184600183028401116401000000008311171561088757600080fd5b909192939192939080359060200190929190505050611a82565b005b610924600480360360408110156108b957600080fd5b81019080803590602001906401000000008111156108d657600080fd5b8201836020820111156108e857600080fd5b8035906020019184600183028401116401000000008311171561090a57600080fd5b909192939192939080359060200190929190505050611b2d565b005b6109a76004803603604081101561093c57600080fd5b810190808035906020019064010000000081111561095957600080fd5b82018360208201111561096b57600080fd5b8035906020019184600183028401116401000000008311171561098d57600080fd5b909192939192939080359060200190929190505050611bd8565b604051808a60038111156109b757fe5b60ff1681526020018961ffff1661ffff1681526020018881526020018781526020018673ffffffffffffffffffffffffffffffffffffffff1673ffffffffffffffffffffffffffffffffffffffff1681526020018573ffffffffffffffffffffffffffffffffffffffff1673ffffffffffffffffffffffffffffffffffffffff168152602001848152602001838152602001828152602001995050505050505050505060405180910390f35b610ae460048036036040811015610a7957600080fd5b810190808035906020019092919080359060200190640100000000811115610aa057600080fd5b820183602082011115610ab257600080fd5b80359060200191846001830284011164010000000083111715610ad457600080fd5b9091929391929390505050611d21565b6040518080602001828103825283818151815260200191508051906020019080838360005b83811015610b24578082015181840152602081019050610b09565b50505050905090810190601f168015610b515780820380516001836020036101000a031916815260200191505b509250505060405180910390f35b610c3560048036036060811015610b7557600080fd5b810190808035906020019092919080359060200190640100000000811115610b9c57600080fd5b820183602082011115610bae57600080fd5b80359060200191846001830284011164010000000083111715610bd057600080fd5b909192939192939080359060200190640100000000811115610bf157600080fd5b820183602082011115610c0357600080fd5b80359060200191846001830284011164010000000083111715610c2557600080fd5b9091929391929390505050611e4b565b005b610c6360048036036020811015610c4d57600080fd5b8101908080359060200190929190505050611f2c565b604051808a6003811115610c7357fe5b60ff1681526020018961ffff1661ffff1681526020018881526020018781526020018673ffffffffffffffffffffffffffffffffffffffff1673ffffffffffffffffffffffffffffffffffffffff1681526020018573ffffffffffffffffffffffffffffffffffffffff1673ffffffffffffffffffffffffffffffffffffffff168152602001848152602001838152602001828152602001995050505050505050505060405180910390f35b610da060048036036040811015610d3557600080fd5b8101908080359060200190640100000000811115610d5257600080fd5b820183602082011115610d6457600080fd5b80359060200191846001830284011164010000000083111715610d8657600080fd5b90919293919293908035906020019092919050505061203f565b604051808a6003811115610db057fe5b60ff1681526020018961ffff1661ffff1681526020018881526020018781526020018673ffffffffffffffffffffffffffffffffffffffff1673ffffffffffffffffffffffffffffffffffffffff1681526020018573ffffffffffffffffffffffffffffffffffffffff1673ffffffffffffffffffffffffffffffffffffffff168152602001848152602001838152602001828152602001995050505050505050505060405180910390f35b610e9260048036036040811015610e7257600080fd5b810190808035906020019092919080359060200190929190505050612188565b6040518080602001828103825283818151815260200191508051906020019080838360005b83811015610ed2578082015181840152602081019050610eb7565b50505050905090810190601f168015610eff5780820380516001836020036101000a031916815260200191505b509250505060405180910390f35b610f8e60048036036040811015610f2357600080fd5b810190808035906020019092919080359060200190640100000000811115610f4a57600080fd5b820183602082011115610f5c57600080fd5b80359060200191846001830284011164010000000083111715610f7e57600080fd5b9091929391929390505050612285565b005b61101160048036036040811015610fa657600080fd5b8101908080359060200190640100000000811115610fc357600080fd5b820183602082011115610fd557600080fd5b80359060200191846001830284011164010000000083111715610ff757600080fd5b909192939192939080359060200190929190505050612330565b005b6110e96004803603606081101561102957600080fd5b810190808035906020019064010000000081111561104657600080fd5b82018360208201111561105857600080fd5b8035906020019184600183028401116401000000008311171561107a57600080fd5b90919293919293908035906020019064010000000081111561109b57600080fd5b8201836020820111156110ad57600080fd5b803590602001918460018302840111640100000000831117156110cf57600080fd5b9091929391929390803590602001909291905050506123db565b005b6111ac6004803603608081101561110157600080fd5b810190808035906020019064010000000081111561111e57600080fd5b82018360208201111561113057600080fd5b8035906020019184600183028401116401000000008311171561115257600080fd5b9091929391929390803573ffffffffffffffffffffffffffffffffffffffff169060200190929190803573ffffffffffffffffffffffffffffffffffffffff169060200190929190803590602001909291905050506124bc565b005b6111b66125d1565b005b6060600073__FsLib1________________________________635d9149539091846040518363ffffffff1660e01b8152600401808381526020018281526020019250505060006040518083038186803b15801561121457600080fd5b505af4158015611228573d6000803e3d6000fd5b505050506040513d6000823e3d601f19601f82011682018060405250602081101561125257600080fd5b81019080805164010000000081111561126a57600080fd5b8281019050602081018481111561128057600080fd5b815185600182028301116401000000008211171561129d57600080fd5b50509291905050509050919050565b60008073__FsLib_________________________________637e9ec4059091878787876040518663ffffffff1660e01b815260040180868152602001806020018481526020018381526020018281038252868682818152602001925080828437600081840152601f19601f820116905080830192505050965050505050505060206040518083038186803b15801561134357600080fd5b505af4158015611357573d6000803e3d6000fd5b505050506040513d602081101561136d57600080fd5b81019080805190602001909291905050509050949350505050565b600073__FsLib1________________________________63ba46d329909187878787876040518763ffffffff1660e01b81526004018087815260200180602001806020018481526020018381038352888882818152602001925080828437600081840152601f19601f8201169050808301925050508381038252868682818152602001925080828437600081840152601f19601f8201169050808301925050509850505050505050505060006040518083038186803b15801561144a57600080fd5b505af415801561145e573d6000803e3d6000fd5b505050505050505050565b600073__FsLib_________________________________63620bd1629091836040518363ffffffff1660e01b8152600401808381526020018281526020019250505060006040518083038186803b1580156114c357600080fd5b505af41580156114d7573d6000803e3d6000fd5b5050505050565b600073__FsLib_________________________________6380d0c5c99091868686866040518663ffffffff1660e01b815260040180868152602001858152602001806020018381526020018281038252858582818152602001925080828437600081840152601f19601f820116905080830192505050965050505050505060006040518083038186803b15801561157457600080fd5b505af4158015611588573d6000803e3d6000fd5b5050505050505050565b600073__FsLib1________________________________633943dc4b909187878787876040518763ffffffff1660e01b81526004018087815260200180602001806020018481526020018381038352888882818152602001925080828437600081840152601f19601f8201169050808301925050508381038252868682818152602001925080828437600081840152601f19601f8201169050808301925050509850505050505050505060006040518083038186803b15801561165457600080fd5b505af4158015611668573d6000803e3d6000fd5b505050505050505050565b600073__FsLib_________________________________63af73c9b590916040518263ffffffff1660e01b81526004018082815260200191505060006040518083038186803b1580156116c557600080fd5b505af41580156116d9573d6000803e3d6000fd5b50505050565b60008073__FsLib_________________________________63bbcd700d9091878787876040518663ffffffff1660e01b815260040180868152602001806020018481526020018381526020018281038252868682818152602001925080828437600081840152601f19601f820116905080830192505050965050505050505060206040518083038186803b15801561177657600080fd5b505af415801561178a573d6000803e3d6000fd5b505050506040513d60208110156117a057600080fd5b81019080805190602001909291905050509050949350505050565b600073__FsLib_________________________________63e176728b9091868686866040518663ffffffff1660e01b815260040180868152602001806020018461ffff1661ffff1681526020018381526020018281038252868682818152602001925080828437600081840152601f19601f820116905080830192505050965050505050505060006040518083038186803b15801561185957600080fd5b505af415801561186d573d6000803e3d6000fd5b5050505050505050565b600073__FsLib1________________________________63e4685dc3909187878787876040518763ffffffff1660e01b81526004018087815260200180602001806020018481526020018381038352888882818152602001925080828437600081840152601f19601f8201169050808301925050508381038252868682818152602001925080828437600081840152601f19601f8201169050808301925050509850505050505050505060006040518083038186803b15801561193957600080fd5b505af415801561194d573d6000803e3d6000fd5b505050505050505050565b6060600073__FsLib1________________________________63fe94764c90918686866040518563ffffffff1660e01b815260040180858152602001806020018381526020018281038252858582818152602001925080828437600081840152601f19601f8201169050808301925050509550505050505060006040518083038186803b1580156119e857600080fd5b505af41580156119fc573d6000803e3d6000fd5b505050506040513d6000823e3d601f19601f820116820180604052506020811015611a2657600080fd5b810190808051640100000000811115611a3e57600080fd5b82810190506020810184811115611a5457600080fd5b8151856001820283011164010000000082111715611a7157600080fd5b505092919050505090509392505050565b600073__FsLib_________________________________63881ed2e990918585856040518563ffffffff1660e01b815260040180858152602001806020018381526020018281038252858582818152602001925080828437600081840152601f19601f8201169050808301925050509550505050505060006040518083038186803b158015611b1057600080fd5b505af4158015611b24573d6000803e3d6000fd5b50505050505050565b600073__FsLib_________________________________632964021890918585856040518563ffffffff1660e01b815260040180858152602001806020018381526020018281038252858582818152602001925080828437600081840152601f19601f8201169050808301925050509550505050505060006040518083038186803b158015611bbb57600080fd5b505af4158015611bcf573d6000803e3d6000fd5b50505050505050565b60008060008060008060008060008073__FsLib_________________________________63c32e7f6390918e8e8e6040518563ffffffff1660e01b815260040180858152602001806020018381526020018281038252858582818152602001925080828437600081840152601f19601f820116905080830192505050955050505050506101206040518083038186803b158015611c7457600080fd5b505af4158015611c88573d6000803e3d6000fd5b505050506040513d610120811015611c9f57600080fd5b8101908080519060200190929190805190602001909291908051906020019092919080519060200190929190805190602001909291908051906020019092919080519060200190929190805190602001909291908051906020019092919050505098509850985098509850985098509850985093979b92969a50939750939750565b6060600073__FsLib_________________________________638ce487fc90918686866040518563ffffffff1660e01b815260040180858152602001848152602001806020018281038252848482818152602001925080828437600081840152601f19601f8201169050808301925050509550505050505060006040518083038186803b158015611db157600080fd5b505af4158015611dc5573d6000803e3d6000fd5b505050506040513d6000823e3d601f19601f820116820180604052506020811015611def57600080fd5b810190808051640100000000811115611e0757600080fd5b82810190506020810184811115611e1d57600080fd5b8151856001820283011164010000000082111715611e3a57600080fd5b505092919050505090509392505050565b600073__FsLib_________________________________63d9d06fcf909187878787876040518763ffffffff1660e01b81526004018087815260200186815260200180602001806020018381038352878782818152602001925080828437600081840152601f19601f8201169050808301925050508381038252858582818152602001925080828437600081840152601f19601f8201169050808301925050509850505050505050505060006040518083038186803b158015611f0d57600080fd5b505af4158015611f21573d6000803e3d6000fd5b505050505050505050565b60008060008060008060008060008073__FsLib_________________________________637545c66b90918c6040518363ffffffff1660e01b815260040180838152602001828152602001925050506101206040518083038186803b158015611f9457600080fd5b505af4158015611fa8573d6000803e3d6000fd5b505050506040513d610120811015611fbf57600080fd5b810190808051906020019092919080519060200190929190805190602001909291908051906020019092919080519060200190929190805190602001909291908051906020019092919080519060200190929190805190602001909291905050509850985098509850985098509850985098509193959799909294969850565b60008060008060008060008060008073__FsLib_________________________________63e738d11a90918e8e8e6040518563ffffffff1660e01b815260040180858152602001806020018381526020018281038252858582818152602001925080828437600081840152601f19601f820116905080830192505050955050505050506101206040518083038186803b1580156120db57600080fd5b505af41580156120ef573d6000803e3d6000fd5b505050506040513d61012081101561210657600080fd5b8101908080519060200190929190805190602001909291908051906020019092919080519060200190929190805190602001909291908051906020019092919080519060200190929190805190602001909291908051906020019092919050505098509850985098509850985098509850985093979b92969a50939750939750565b6060600073__FsLib_________________________________63e8137798909185856040518463ffffffff1660e01b815260040180848152602001838152602001828152602001935050505060006040518083038186803b1580156121ec57600080fd5b505af4158015612200573d6000803e3d6000fd5b505050506040513d6000823e3d601f19601f82011682018060405250602081101561222a57600080fd5b81019080805164010000000081111561224257600080fd5b8281019050602081018481111561225857600080fd5b815185600182028301116401000000008211171561227557600080fd5b5050929190505050905092915050565b600073__FsLib_________________________________6338ef25ff90918585856040518563ffffffff1660e01b815260040180858152602001848152602001806020018281038252848482818152602001925080828437600081840152601f19601f8201169050808301925050509550505050505060006040518083038186803b15801561231357600080fd5b505af4158015612327573d6000803e3d6000fd5b50505050505050565b600073__FsLib_________________________________63785ae79d90918585856040518563ffffffff1660e01b815260040180858152602001806020018381526020018281038252858582818152602001925080828437600081840152601f19601f8201169050808301925050509550505050505060006040518083038186803b1580156123be57600080fd5b505af41580156123d2573d6000803e3d6000fd5b50505050505050565b600073__FsLib1________________________________6356e58c80909187878787876040518763ffffffff1660e01b81526004018087815260200180602001806020018481526020018381038352888882818152602001925080828437600081840152601f19601f8201169050808301925050508381038252868682818152602001925080828437600081840152601f19601f8201169050808301925050509850505050505050505060006040518083038186803b15801561249d57600080fd5b505af41580156124b1573d6000803e3d6000fd5b505050505050505050565b600073__FsLib1________________________________63ee43b915909187878787876040518763ffffffff1660e01b815260040180878152602001806020018573ffffffffffffffffffffffffffffffffffffffff1673ffffffffffffffffffffffffffffffffffffffff1681526020018473ffffffffffffffffffffffffffffffffffffffff1673ffffffffffffffffffffffffffffffffffffffff1681526020018381526020018281038252878782818152602001925080828437600081840152601f19601f82011690508083019250505097505050505050505060006040518083038186803b1580156125b257600080fd5b505af41580156125c6573d6000803e3d6000fd5b505050505050505050565b600073__FsLib_________________________________635e35ed2790916040518263ffffffff1660e01b81526004018082815260200191505060006040518083038186803b15801561262357600080fd5b505af4158015612637573d6000803e3d6000fd5b5050505056fea165627a7a72305820c1a4c4fda0a415ef9727b454cec4f2a51304afbbaffdefc055c2e7a96cfb247b0029",
  "source": "pragma solidity >= 0.5.8;\n\nimport './FsLib.sol';\nimport './FsLib1.sol';\n\ncontract FsDisk is FileSystem {\n  using FsLib for FsLib.Disk;\n  using FsLib1 for FsLib.Disk;\n  FsLib.Disk m_disk;\n\n  constructor() public {\n    m_disk.init();\n  }\n\n  function mount() external {\n    m_disk.mount();\n  }\n\n  function unmount() external {\n    m_disk.unmount();\n  }\n\n  function dirInodeToPath(uint ino) external view returns (bytes memory) {\n    return m_disk.dirInodeToPath(ino);\n  }\n\n  function open(bytes calldata path, uint curdir, uint flags) external returns (uint) {\n    return m_disk.open(path, curdir, flags);\n  }\n\n  function openOnly(bytes calldata path, uint curdir, uint flags) external view returns (uint) {\n    return m_disk.openOnly(path, curdir, flags);\n  }\n\n  function close(uint ino) external {\n    m_disk.close(ino);\n  }\n\n  function readkey(uint ino, uint index) external view returns (bytes memory) {\n    return m_disk.readkey(ino, index);\n  }\n\n  function read(uint ino, bytes calldata key) external view returns (bytes memory) {\n    return m_disk.read(ino, key);\n  }\n\n  function write(uint ino, bytes calldata key, bytes calldata value) external {\n    m_disk.write(ino, key, value);\n  }\n\n  function truncate(uint ino, bytes calldata key, uint len) external {\n    m_disk.truncate(ino, key, len);\n  }\n\n  function clear(uint ino, bytes calldata key) external {\n    m_disk.clear(ino, key);\n  }\n\n  function link(bytes calldata source, bytes calldata target, uint curdir) external {\n    m_disk.link(source, target, curdir);\n  }\n\n  function unlink(bytes calldata path, uint curdir) external {\n    m_disk.unlink(path, curdir);\n  }\n\n  function symlink(bytes calldata source, bytes calldata target, uint curdir) external {\n    m_disk.symlink(source, target, curdir);\n  }\n\n  function readlink(bytes calldata path, uint curdir) external view returns (bytes memory) {\n    return m_disk.readlink(path, curdir);\n  }\n\n  function move(bytes calldata source, bytes calldata target, uint curdir) external {\n    m_disk.move(source, target, curdir);\n  }\n\n  function copy(bytes calldata source, bytes calldata target, uint curdir) external {\n    m_disk.copy(source, target, curdir);\n  }\n\n  function chown(bytes calldata path, address owner, address group, uint curdir) external {\n    m_disk.chown(path, owner, group, curdir);\n  }\n\n  function chmod(bytes calldata path, uint16 mode, uint curdir) external {\n    m_disk.chmod(path, mode, curdir);\n  }\n\n  function mkdir(bytes calldata path, uint curdir) external {\n    m_disk.mkdir(path, curdir);\n  }\n\n  function rmdir(bytes calldata path, uint curdir) external {\n    m_disk.rmdir(path, curdir);\n  }\n\n  function stat(bytes calldata path, uint curdir) external view returns (FileType fileType, uint16 mode, uint ino_, uint links, address owner, address group, uint entries, uint size, uint lastModified) {\n    return m_disk.stat(path, curdir);\n  }\n\n  function lstat(bytes calldata path, uint curdir) external view returns (FileType fileType, uint16 mode, uint ino_, uint links, address owner, address group, uint entries, uint size, uint lastModified) {\n    return m_disk.lstat(path, curdir);\n  }\n\n  function fstat(uint ino) external view returns (FileType fileType, uint16 mode, uint ino_, uint links, address owner, address group, uint entries, uint size, uint lastModified) {\n    return m_disk.fstat(ino);\n  }\n}\n",
  "sourcePath": "/Users/hector/work/ethfs/contracts/kernel/FsDisk.sol",
  "compiler": {
    "name": "solc",
    "version": "0.5.8+commit.23d335f2.Emscripten.clang"
  },
  "schemaVersion": "3.0.12",
  "updatedAt": "2019-08-27T20:14:58.671Z",
  "devdoc": {
    "methods": {}
  },
  "userdoc": {
    "methods": {}
  }
}