{
  "contractName": "KernelImpl",
  "abi": [
    {
      "inputs": [
        {
          "internalType": "contract FileSystem",
          "name": "fileSystem",
          "type": "address"
        }
      ],
      "payable": false,
      "stateMutability": "nonpayable",
      "type": "constructor"
    },
    {
      "constant": true,
      "inputs": [],
      "name": "result",
      "outputs": [
        {
          "internalType": "uint256",
          "name": "",
          "type": "uint256"
        }
      ],
      "payable": false,
      "stateMutability": "view",
      "type": "function"
    },
    {
      "constant": false,
      "inputs": [
        {
          "internalType": "bytes",
          "name": "path",
          "type": "bytes"
        },
        {
          "internalType": "uint256",
          "name": "flags",
          "type": "uint256"
        }
      ],
      "name": "open",
      "outputs": [
        {
          "internalType": "uint256",
          "name": "",
          "type": "uint256"
        }
      ],
      "payable": false,
      "stateMutability": "nonpayable",
      "type": "function"
    },
    {
      "constant": true,
      "inputs": [
        {
          "internalType": "uint256",
          "name": "fd",
          "type": "uint256"
        },
        {
          "internalType": "uint256",
          "name": "index",
          "type": "uint256"
        }
      ],
      "name": "readkey",
      "outputs": [
        {
          "internalType": "bytes",
          "name": "",
          "type": "bytes"
        }
      ],
      "payable": false,
      "stateMutability": "view",
      "type": "function"
    },
    {
      "constant": true,
      "inputs": [
        {
          "internalType": "bytes",
          "name": "path",
          "type": "bytes"
        },
        {
          "internalType": "uint256",
          "name": "index",
          "type": "uint256"
        }
      ],
      "name": "readkeyPath",
      "outputs": [
        {
          "internalType": "bytes",
          "name": "",
          "type": "bytes"
        }
      ],
      "payable": false,
      "stateMutability": "view",
      "type": "function"
    },
    {
      "constant": true,
      "inputs": [
        {
          "internalType": "uint256",
          "name": "fd",
          "type": "uint256"
        },
        {
          "internalType": "bytes",
          "name": "key",
          "type": "bytes"
        }
      ],
      "name": "read",
      "outputs": [
        {
          "internalType": "bytes",
          "name": "",
          "type": "bytes"
        }
      ],
      "payable": false,
      "stateMutability": "view",
      "type": "function"
    },
    {
      "constant": true,
      "inputs": [
        {
          "internalType": "bytes",
          "name": "path",
          "type": "bytes"
        },
        {
          "internalType": "bytes",
          "name": "key",
          "type": "bytes"
        }
      ],
      "name": "readPath",
      "outputs": [
        {
          "internalType": "bytes",
          "name": "",
          "type": "bytes"
        }
      ],
      "payable": false,
      "stateMutability": "view",
      "type": "function"
    },
    {
      "constant": false,
      "inputs": [
        {
          "internalType": "uint256",
          "name": "fd",
          "type": "uint256"
        },
        {
          "internalType": "bytes",
          "name": "key",
          "type": "bytes"
        },
        {
          "internalType": "bytes",
          "name": "value",
          "type": "bytes"
        }
      ],
      "name": "write",
      "outputs": [],
      "payable": false,
      "stateMutability": "nonpayable",
      "type": "function"
    },
    {
      "constant": false,
      "inputs": [
        {
          "internalType": "uint256",
          "name": "fd",
          "type": "uint256"
        },
        {
          "internalType": "bytes",
          "name": "key",
          "type": "bytes"
        },
        {
          "internalType": "uint256",
          "name": "len",
          "type": "uint256"
        }
      ],
      "name": "truncate",
      "outputs": [],
      "payable": false,
      "stateMutability": "nonpayable",
      "type": "function"
    },
    {
      "constant": false,
      "inputs": [
        {
          "internalType": "uint256",
          "name": "fd",
          "type": "uint256"
        },
        {
          "internalType": "bytes",
          "name": "key",
          "type": "bytes"
        }
      ],
      "name": "clear",
      "outputs": [],
      "payable": false,
      "stateMutability": "nonpayable",
      "type": "function"
    },
    {
      "constant": false,
      "inputs": [
        {
          "internalType": "uint256",
          "name": "fd",
          "type": "uint256"
        }
      ],
      "name": "close",
      "outputs": [],
      "payable": false,
      "stateMutability": "nonpayable",
      "type": "function"
    },
    {
      "constant": false,
      "inputs": [
        {
          "internalType": "bytes",
          "name": "source",
          "type": "bytes"
        },
        {
          "internalType": "bytes",
          "name": "target",
          "type": "bytes"
        }
      ],
      "name": "link",
      "outputs": [],
      "payable": false,
      "stateMutability": "nonpayable",
      "type": "function"
    },
    {
      "constant": false,
      "inputs": [
        {
          "internalType": "bytes",
          "name": "path",
          "type": "bytes"
        }
      ],
      "name": "unlink",
      "outputs": [],
      "payable": false,
      "stateMutability": "nonpayable",
      "type": "function"
    },
    {
      "constant": false,
      "inputs": [
        {
          "internalType": "bytes",
          "name": "source",
          "type": "bytes"
        },
        {
          "internalType": "bytes",
          "name": "target",
          "type": "bytes"
        }
      ],
      "name": "symlink",
      "outputs": [],
      "payable": false,
      "stateMutability": "nonpayable",
      "type": "function"
    },
    {
      "constant": true,
      "inputs": [
        {
          "internalType": "bytes",
          "name": "path",
          "type": "bytes"
        }
      ],
      "name": "readlink",
      "outputs": [
        {
          "internalType": "bytes",
          "name": "",
          "type": "bytes"
        }
      ],
      "payable": false,
      "stateMutability": "view",
      "type": "function"
    },
    {
      "constant": false,
      "inputs": [
        {
          "internalType": "bytes",
          "name": "source",
          "type": "bytes"
        },
        {
          "internalType": "bytes",
          "name": "target",
          "type": "bytes"
        }
      ],
      "name": "move",
      "outputs": [],
      "payable": false,
      "stateMutability": "nonpayable",
      "type": "function"
    },
    {
      "constant": false,
      "inputs": [
        {
          "internalType": "bytes",
          "name": "source",
          "type": "bytes"
        },
        {
          "internalType": "bytes",
          "name": "target",
          "type": "bytes"
        }
      ],
      "name": "copy",
      "outputs": [],
      "payable": false,
      "stateMutability": "nonpayable",
      "type": "function"
    },
    {
      "constant": false,
      "inputs": [
        {
          "internalType": "bytes",
          "name": "path",
          "type": "bytes"
        },
        {
          "internalType": "address",
          "name": "owner",
          "type": "address"
        },
        {
          "internalType": "address",
          "name": "group",
          "type": "address"
        }
      ],
      "name": "chown",
      "outputs": [],
      "payable": false,
      "stateMutability": "nonpayable",
      "type": "function"
    },
    {
      "constant": false,
      "inputs": [
        {
          "internalType": "bytes",
          "name": "path",
          "type": "bytes"
        },
        {
          "internalType": "uint16",
          "name": "mode",
          "type": "uint16"
        }
      ],
      "name": "chmod",
      "outputs": [],
      "payable": false,
      "stateMutability": "nonpayable",
      "type": "function"
    },
    {
      "constant": true,
      "inputs": [],
      "name": "getcwd",
      "outputs": [
        {
          "internalType": "bytes",
          "name": "",
          "type": "bytes"
        }
      ],
      "payable": false,
      "stateMutability": "view",
      "type": "function"
    },
    {
      "constant": false,
      "inputs": [
        {
          "internalType": "bytes",
          "name": "path",
          "type": "bytes"
        }
      ],
      "name": "chdir",
      "outputs": [],
      "payable": false,
      "stateMutability": "nonpayable",
      "type": "function"
    },
    {
      "constant": false,
      "inputs": [
        {
          "internalType": "bytes",
          "name": "path",
          "type": "bytes"
        }
      ],
      "name": "mkdir",
      "outputs": [],
      "payable": false,
      "stateMutability": "nonpayable",
      "type": "function"
    },
    {
      "constant": false,
      "inputs": [
        {
          "internalType": "bytes",
          "name": "path",
          "type": "bytes"
        }
      ],
      "name": "rmdir",
      "outputs": [],
      "payable": false,
      "stateMutability": "nonpayable",
      "type": "function"
    },
    {
      "constant": true,
      "inputs": [
        {
          "internalType": "bytes",
          "name": "path",
          "type": "bytes"
        }
      ],
      "name": "stat",
      "outputs": [
        {
          "internalType": "enum FileSystem.FileType",
          "name": "fileType",
          "type": "uint8"
        },
        {
          "internalType": "uint16",
          "name": "mode",
          "type": "uint16"
        },
        {
          "internalType": "uint256",
          "name": "ino",
          "type": "uint256"
        },
        {
          "internalType": "uint256",
          "name": "links",
          "type": "uint256"
        },
        {
          "internalType": "address",
          "name": "owner",
          "type": "address"
        },
        {
          "internalType": "address",
          "name": "group",
          "type": "address"
        },
        {
          "internalType": "uint256",
          "name": "entries",
          "type": "uint256"
        },
        {
          "internalType": "uint256",
          "name": "size",
          "type": "uint256"
        },
        {
          "internalType": "uint256",
          "name": "lastModified",
          "type": "uint256"
        }
      ],
      "payable": false,
      "stateMutability": "view",
      "type": "function"
    },
    {
      "constant": true,
      "inputs": [
        {
          "internalType": "bytes",
          "name": "path",
          "type": "bytes"
        }
      ],
      "name": "lstat",
      "outputs": [
        {
          "internalType": "enum FileSystem.FileType",
          "name": "fileType",
          "type": "uint8"
        },
        {
          "internalType": "uint16",
          "name": "mode",
          "type": "uint16"
        },
        {
          "internalType": "uint256",
          "name": "ino",
          "type": "uint256"
        },
        {
          "internalType": "uint256",
          "name": "links",
          "type": "uint256"
        },
        {
          "internalType": "address",
          "name": "owner",
          "type": "address"
        },
        {
          "internalType": "address",
          "name": "group",
          "type": "address"
        },
        {
          "internalType": "uint256",
          "name": "entries",
          "type": "uint256"
        },
        {
          "internalType": "uint256",
          "name": "size",
          "type": "uint256"
        },
        {
          "internalType": "uint256",
          "name": "lastModified",
          "type": "uint256"
        }
      ],
      "payable": false,
      "stateMutability": "view",
      "type": "function"
    },
    {
      "constant": true,
      "inputs": [
        {
          "internalType": "uint256",
          "name": "fd",
          "type": "uint256"
        }
      ],
      "name": "fstat",
      "outputs": [
        {
          "internalType": "enum FileSystem.FileType",
          "name": "fileType",
          "type": "uint8"
        },
        {
          "internalType": "uint16",
          "name": "mode",
          "type": "uint16"
        },
        {
          "internalType": "uint256",
          "name": "ino",
          "type": "uint256"
        },
        {
          "internalType": "uint256",
          "name": "links",
          "type": "uint256"
        },
        {
          "internalType": "address",
          "name": "owner",
          "type": "address"
        },
        {
          "internalType": "address",
          "name": "group",
          "type": "address"
        },
        {
          "internalType": "uint256",
          "name": "entries",
          "type": "uint256"
        },
        {
          "internalType": "uint256",
          "name": "size",
          "type": "uint256"
        },
        {
          "internalType": "uint256",
          "name": "lastModified",
          "type": "uint256"
        }
      ],
      "payable": false,
      "stateMutability": "view",
      "type": "function"
    }
  ],
  "bytecode": "0x608060405234801561001057600080fd5b506040516123fc3803806123fc8339818101604052602081101561003357600080fd5b5051604080517f391cb7f1000000000000000000000000000000000000000000000000000000008152600060048201819052600160a060020a0384166024830152915173__KernelLib_____________________________9263391cb7f19260448082019391829003018186803b1580156100ad57600080fd5b505af41580156100c1573d6000803e3d6000fd5b5050505050612327806100d56000396000f3fe608060405234801561001057600080fd5b50600436106101775760003560e060020a900480637c4024ee116100e2578063c5cdd83e1161009b578063e492c9f111610075578063e492c9f114610c10578063e623156514610c80578063e7bafd4314610cf0578063f0b4867714610d6457610177565b8063c5cdd83e14610acf578063ca21b1c914610b46578063d57fd6a514610b4e57610177565b80637c4024ee146107cb578063829e73691461088d578063a562b13514610904578063af89ee26146109cd578063b9e4bbb314610a8f578063c4701cca14610aac57610177565b80632a5dea89116101345780632a5dea8914610511578063414227de1461059357806365372147146106035780636caae5651461060b578063775dc292146106cd5780637938ff611461075b57610177565b806305ed1e421461017c5780630aebeb4e146101ee5780630d28a6af1461020b57806311a7ef5f146102825780632039e6e51461036757806326ab71ca1461044f575b600080fd5b6101ec6004803603602081101561019257600080fd5b8101906020810181356401000000008111156101ad57600080fd5b8201836020820111156101bf57600080fd5b803590602001918460018302840111640100000000831117156101e157600080fd5b509092509050610dd4565b005b6101ec6004803603602081101561020457600080fd5b5035610e8e565b6101ec6004803603606081101561022157600080fd5b8135919081019060408101602082013564010000000081111561024357600080fd5b82018360208201111561025557600080fd5b8035906020019184600183028401116401000000008311171561027757600080fd5b919350915035610f19565b6102f26004803603604081101561029857600080fd5b8101906020810181356401000000008111156102b357600080fd5b8201836020820111156102c557600080fd5b803590602001918460018302840111640100000000831117156102e757600080fd5b919350915035610fd0565b6040805160208082528351818301528351919283929083019185019080838360005b8381101561032c578181015183820152602001610314565b50505050905090810190601f1680156103595780820380516001836020036101000a031916815260200191505b509250505060405180910390f35b6103d76004803603602081101561037d57600080fd5b81019060208101813564010000000081111561039857600080fd5b8201836020820111156103aa57600080fd5b803590602001918460018302840111640100000000831117156103cc57600080fd5b509092509050611159565b604051808a60038111156103e757fe5b60ff16815261ffff90991660208a015250604080890197909752606088019590955273ffffffffffffffffffffffffffffffffffffffff93841660808801529190921660a086015260c085019190915260e08401526101008301525190819003610120019150f35b6102f26004803603604081101561046557600080fd5b81019060208101813564010000000081111561048057600080fd5b82018360208201111561049257600080fd5b803590602001918460018302840111640100000000831117156104b457600080fd5b9193909290916020810190356401000000008111156104d257600080fd5b8201836020820111156104e457600080fd5b8035906020019184600183028401116401000000008311171561050657600080fd5b50909250905061129b565b6105816004803603604081101561052757600080fd5b81019060208101813564010000000081111561054257600080fd5b82018360208201111561055457600080fd5b8035906020019184600183028401116401000000008311171561057657600080fd5b919350915035611449565b60408051918252519081900360200190f35b6103d7600480360360208110156105a957600080fd5b8101906020810181356401000000008111156105c457600080fd5b8201836020820111156105d657600080fd5b803590602001918460018302840111640100000000831117156105f857600080fd5b50909250905061150f565b6105816115a6565b6101ec6004803603604081101561062157600080fd5b81019060208101813564010000000081111561063c57600080fd5b82018360208201111561064e57600080fd5b8035906020019184600183028401116401000000008311171561067057600080fd5b91939092909160208101903564010000000081111561068e57600080fd5b8201836020820111156106a057600080fd5b803590602001918460018302840111640100000000831117156106c257600080fd5b50909250905061162d565b6101ec600480360360608110156106e357600080fd5b8101906020810181356401000000008111156106fe57600080fd5b82018360208201111561071057600080fd5b8035906020019184600183028401116401000000008311171561073257600080fd5b919350915073ffffffffffffffffffffffffffffffffffffffff813581169160200135166116e2565b6101ec6004803603602081101561077157600080fd5b81019060208101813564010000000081111561078c57600080fd5b82018360208201111561079e57600080fd5b803590602001918460018302840111640100000000831117156107c057600080fd5b5090925090506117ac565b6101ec600480360360408110156107e157600080fd5b8101906020810181356401000000008111156107fc57600080fd5b82018360208201111561080e57600080fd5b8035906020019184600183028401116401000000008311171561083057600080fd5b91939092909160208101903564010000000081111561084e57600080fd5b82018360208201111561086057600080fd5b8035906020019184600183028401116401000000008311171561088257600080fd5b50909250905061184a565b6102f2600480360360408110156108a357600080fd5b813591908101906040810160208201356401000000008111156108c557600080fd5b8201836020820111156108d757600080fd5b803590602001918460018302840111640100000000831117156108f957600080fd5b5090925090506118ff565b6101ec6004803603606081101561091a57600080fd5b8135919081019060408101602082013564010000000081111561093c57600080fd5b82018360208201111561094e57600080fd5b8035906020019184600183028401116401000000008311171561097057600080fd5b91939092909160208101903564010000000081111561098e57600080fd5b8201836020820111156109a057600080fd5b803590602001918460018302840111640100000000831117156109c257600080fd5b509092509050611992565b6101ec600480360360408110156109e357600080fd5b8101906020810181356401000000008111156109fe57600080fd5b820183602082011115610a1057600080fd5b80359060200191846001830284011164010000000083111715610a3257600080fd5b919390929091602081019035640100000000811115610a5057600080fd5b820183602082011115610a6257600080fd5b80359060200191846001830284011164010000000083111715610a8457600080fd5b509092509050611a6e565b6103d760048036036020811015610aa557600080fd5b5035611b23565b6102f260048036036040811015610ac257600080fd5b5080359060200135611c39565b6101ec60048036036040811015610ae557600080fd5b81359190810190604081016020820135640100000000811115610b0757600080fd5b820183602082011115610b1957600080fd5b80359060200191846001830284011164010000000083111715610b3b57600080fd5b509092509050611da8565b6102f2611e56565b6101ec60048036036040811015610b6457600080fd5b810190602081018135640100000000811115610b7f57600080fd5b820183602082011115610b9157600080fd5b80359060200191846001830284011164010000000083111715610bb357600080fd5b919390929091602081019035640100000000811115610bd157600080fd5b820183602082011115610be357600080fd5b80359060200191846001830284011164010000000083111715610c0557600080fd5b509092509050611fb4565b6101ec60048036036020811015610c2657600080fd5b810190602081018135640100000000811115610c4157600080fd5b820183602082011115610c5357600080fd5b80359060200191846001830284011164010000000083111715610c7557600080fd5b509092509050612069565b6102f260048036036020811015610c9657600080fd5b810190602081018135640100000000811115610cb157600080fd5b820183602082011115610cc357600080fd5b80359060200191846001830284011164010000000083111715610ce557600080fd5b509092509050612107565b6101ec60048036036040811015610d0657600080fd5b810190602081018135640100000000811115610d2157600080fd5b820183602082011115610d3357600080fd5b80359060200191846001830284011164010000000083111715610d5557600080fd5b91935091503561ffff166121a7565b6101ec60048036036020811015610d7a57600080fd5b810190602081018135640100000000811115610d9557600080fd5b820183602082011115610da757600080fd5b80359060200191846001830284011164010000000083111715610dc957600080fd5b509092509050612254565b604080517fd9066d33000000000000000000000000000000000000000000000000000000008152600060048201818152602483019384526044830185905273__KernelLib_____________________________9363d9066d3393879287929091606401848480828437600081840152601f19601f82011690508083019250505094505050505060006040518083038186803b158015610e7257600080fd5b505af4158015610e86573d6000803e3d6000fd5b505050505050565b604080517f0fe3aaa800000000000000000000000000000000000000000000000000000000815260006004820181905260248201849052915173__KernelLib_____________________________92630fe3aaa89260448082019391829003018186803b158015610efe57600080fd5b505af4158015610f12573d6000803e3d6000fd5b5050505050565b600073__KernelLib_____________________________632fa078cc9091868686866040518663ffffffff1660e060020a02815260040180868152602001858152602001806020018381526020018281038252858582818152602001925080828437600081840152601f19601f820116905080830192505050965050505050505060006040518083038186803b158015610fb257600080fd5b505af4158015610fc6573d6000803e3d6000fd5b5050505050505050565b6060600073__KernelLib_____________________________632a53313290918686866040518563ffffffff1660e060020a02815260040180858152602001806020018381526020018281038252858582818152602001925080828437600081840152601f19601f8201169050808301925050509550505050505060006040518083038186803b15801561106357600080fd5b505af4158015611077573d6000803e3d6000fd5b505050506040513d6000823e601f3d908101601f1916820160405260208110156110a057600080fd5b81019080805160405193929190846401000000008211156110c057600080fd5b9083019060208201858111156110d557600080fd5b82516401000000008111828201881017156110ef57600080fd5b82525081516020918201929091019080838360005b8381101561111c578181015183820152602001611104565b50505050905090810190601f1680156111495780820380516001836020036101000a031916815260200191505b5060405250505090509392505050565b60008060008060008060008060008073__KernelLib_____________________________63df50381a90918d8d6040518463ffffffff1660e060020a02815260040180848152602001806020018281038252848482818152602001925080828437600083820152604051601f909101601f191690920196506101209550909350505081840390508186803b1580156111f057600080fd5b505af4158015611204573d6000803e3d6000fd5b505050506040513d61012081101561121b57600080fd5b810190808051906020019092919080519060200190929190805190602001909291908051906020019092919080519060200190929190805190602001909291908051906020019092919080519060200190929190805190602001909291905050509850985098509850985098509850985098509295985092959850929598565b6060600073__KernelLib_____________________________6310cc436c9091878787876040518663ffffffff1660e060020a0281526004018086815260200180602001806020018381038352878782818152602001925080828437600083820152601f01601f191690910184810383528581526020019050858580828437600081840152601f19601f82011690508083019250505097505050505050505060006040518083038186803b15801561135257600080fd5b505af4158015611366573d6000803e3d6000fd5b505050506040513d6000823e601f3d908101601f19168201604052602081101561138f57600080fd5b81019080805160405193929190846401000000008211156113af57600080fd5b9083019060208201858111156113c457600080fd5b82516401000000008111828201881017156113de57600080fd5b82525081516020918201929091019080838360005b8381101561140b5781810151838201526020016113f3565b50505050905090810190601f1680156114385780820380516001836020036101000a031916815260200191505b506040525050509050949350505050565b60008073__KernelLib_____________________________630dba30bf90918686866040518563ffffffff1660e060020a02815260040180858152602001806020018381526020018281038252858582818152602001925080828437600081840152601f19601f8201169050808301925050509550505050505060206040518083038186803b1580156114db57600080fd5b505af41580156114ef573d6000803e3d6000fd5b505050506040513d602081101561150557600080fd5b5051949350505050565b60008060008060008060008060008073__KernelLib_____________________________636489737c90918d8d6040518463ffffffff1660e060020a02815260040180848152602001806020018281038252848482818152602001925080828437600083820152604051601f909101601f191690920196506101209550909350505081840390508186803b1580156111f057600080fd5b60008073__KernelLib_____________________________63bb1eb5b790916040518263ffffffff1660e060020a0281526004018082815260200191505060206040518083038186803b1580156115fc57600080fd5b505af4158015611610573d6000803e3d6000fd5b505050506040513d602081101561162657600080fd5b5051905090565b600073__KernelLib_____________________________63c9d171219091868686866040518663ffffffff1660e060020a0281526004018086815260200180602001806020018381038352878782818152602001925080828437600083820152601f01601f191690910184810383528581526020019050858580828437600081840152601f19601f82011690508083019250505097505050505050505060006040518083038186803b158015610fb257600080fd5b6040517ffaf9d9c600000000000000000000000000000000000000000000000000000000815260006004820181815273ffffffffffffffffffffffffffffffffffffffff8086166044850152841660648401526080602484019081526084840187905273__KernelLib_____________________________9363faf9d9c693928992899289928992909160a401868680828437600081840152601f19601f820116905080830192505050965050505050505060006040518083038186803b158015610fb257600080fd5b604080517feb8622a8000000000000000000000000000000000000000000000000000000008152600060048201818152602483019384526044830185905273__KernelLib_____________________________9363eb8622a893879287929091606401848480828437600081840152601f19601f82011690508083019250505094505050505060006040518083038186803b158015610e7257600080fd5b600073__KernelLib_____________________________633811861d9091868686866040518663ffffffff1660e060020a0281526004018086815260200180602001806020018381038352878782818152602001925080828437600083820152601f01601f191690910184810383528581526020019050858580828437600081840152601f19601f82011690508083019250505097505050505050505060006040518083038186803b158015610fb257600080fd5b6060600073__KernelLib_____________________________63e52fdc4690918686866040518563ffffffff1660e060020a02815260040180858152602001848152602001806020018281038252848482818152602001925080828437600081840152601f19601f8201169050808301925050509550505050505060006040518083038186803b15801561106357600080fd5b600073__KernelLib_____________________________63f77e1c00909187878787876040518763ffffffff1660e060020a0281526004018087815260200186815260200180602001806020018381038352878782818152602001925080828437600083820152601f01601f191690910184810383528581526020019050858580828437600081840152601f19601f8201169050808301925050509850505050505050505060006040518083038186803b158015611a4f57600080fd5b505af4158015611a63573d6000803e3d6000fd5b505050505050505050565b600073__KernelLib_____________________________63e83384639091868686866040518663ffffffff1660e060020a0281526004018086815260200180602001806020018381038352878782818152602001925080828437600083820152601f01601f191690910184810383528581526020019050858580828437600081840152601f19601f82011690508083019250505097505050505050505060006040518083038186803b158015610fb257600080fd5b60008060008060008060008060008073__KernelLib_____________________________63f27f8f3f90918c6040518363ffffffff1660e060020a02815260040180838152602001828152602001925050506101206040518083038186803b158015611b8e57600080fd5b505af4158015611ba2573d6000803e3d6000fd5b505050506040513d610120811015611bb957600080fd5b810190808051906020019092919080519060200190929190805190602001909291908051906020019092919080519060200190929190805190602001909291908051906020019092919080519060200190929190805190602001909291905050509850985098509850985098509850985098509193959799909294969850565b604080517fcb5e973f0000000000000000000000000000000000000000000000000000000081526000600482018190526024820185905260448201849052915160609273__KernelLib_____________________________9263cb5e973f9260648083019392829003018186803b158015611cb357600080fd5b505af4158015611cc7573d6000803e3d6000fd5b505050506040513d6000823e601f3d908101601f191682016040526020811015611cf057600080fd5b8101908080516040519392919084640100000000821115611d1057600080fd5b908301906020820185811115611d2557600080fd5b8251640100000000811182820188101715611d3f57600080fd5b82525081516020918201929091019080838360005b83811015611d6c578181015183820152602001611d54565b50505050905090810190601f168015611d995780820380516001836020036101000a031916815260200191505b50604052505050905092915050565b600073__KernelLib_____________________________63d90615c090918585856040518563ffffffff1660e060020a02815260040180858152602001848152602001806020018281038252848482818152602001925080828437600081840152601f19601f8201169050808301925050509550505050505060006040518083038186803b158015611e3957600080fd5b505af4158015611e4d573d6000803e3d6000fd5b50505050505050565b604080517ffc577fca000000000000000000000000000000000000000000000000000000008152600060048201819052915160609273__KernelLib_____________________________9263fc577fca9260248083019392829003018186803b158015611ec257600080fd5b505af4158015611ed6573d6000803e3d6000fd5b505050506040513d6000823e601f3d908101601f191682016040526020811015611eff57600080fd5b8101908080516040519392919084640100000000821115611f1f57600080fd5b908301906020820185811115611f3457600080fd5b8251640100000000811182820188101715611f4e57600080fd5b82525081516020918201929091019080838360005b83811015611f7b578181015183820152602001611f63565b50505050905090810190601f168015611fa85780820380516001836020036101000a031916815260200191505b50604052505050905090565b600073__KernelLib_____________________________634e631f829091868686866040518663ffffffff1660e060020a0281526004018086815260200180602001806020018381038352878782818152602001925080828437600083820152601f01601f191690910184810383528581526020019050858580828437600081840152601f19601f82011690508083019250505097505050505050505060006040518083038186803b158015610fb257600080fd5b604080517fbecc9148000000000000000000000000000000000000000000000000000000008152600060048201818152602483019384526044830185905273__KernelLib_____________________________9363becc914893879287929091606401848480828437600081840152601f19601f82011690508083019250505094505050505060006040518083038186803b158015610e7257600080fd5b604080517ff8f76489000000000000000000000000000000000000000000000000000000008152600060048201818152602483019384526044830185905260609373__KernelLib_____________________________9363f8f76489939288928892606401848480828437600081840152601f19601f82011690508083019250505094505050505060006040518083038186803b158015611cb357600080fd5b6040517fc16d80cb00000000000000000000000000000000000000000000000000000000815260006004820181815261ffff841660448401526060602484019081526064840186905273__KernelLib_____________________________9363c16d80cb93928892889288929190608401858580828437600081840152601f19601f8201169050808301925050509550505050505060006040518083038186803b158015611e3957600080fd5b604080517f5bf28ba1000000000000000000000000000000000000000000000000000000008152600060048201818152602483019384526044830185905273__KernelLib_____________________________93635bf28ba193879287929091606401848480828437600081840152601f19601f82011690508083019250505094505050505060006040518083038186803b158015610e7257600080fdfea265627a7a72315820b9d3a7cb6b363edbdd32d0715c8cab927c8ec3b703cd73fc4d2df6d187e8a51b64736f6c63430005100032",
  "source": "pragma solidity >= 0.5.8;\n\nimport '../interface/Kernel.sol';\nimport './KernelLib.sol';\n\ncontract KernelImpl is Kernel {\n  using KernelLib for KernelLib.KernelArea;\n  KernelLib.KernelArea m_kernelArea;\n\n  constructor(FileSystem fileSystem) public {\n    m_kernelArea.init(fileSystem);\n  }\n\n  function result() external view returns (uint) {\n    return m_kernelArea.result();\n  }\n\n  function open(bytes calldata path, uint flags) external returns (uint) {\n    return m_kernelArea.open(path, flags);\n  }\n\n  function readkey(uint fd, uint index) external view returns (bytes memory) {\n    return m_kernelArea.readkey(fd, index);\n  }\n\n  function readkeyPath(bytes calldata path, uint index) external view returns (bytes memory) {\n    return m_kernelArea.readkeyPath(path, index);\n  }\n\n  function read(uint fd, bytes calldata key) external view returns (bytes memory) {\n    return m_kernelArea.read(fd, key);\n  }\n\n  function readPath(bytes calldata path, bytes calldata key) external view returns (bytes memory) {\n    return m_kernelArea.readPath(path, key);\n  }\n\n  function write(uint fd, bytes calldata key, bytes calldata value) external {\n    m_kernelArea.write(fd, key, value);\n  }\n\n  function truncate(uint fd, bytes calldata key, uint len) external {\n    m_kernelArea.truncate(fd, key, len);\n  }\n\n  function clear(uint fd, bytes calldata key) external {\n    m_kernelArea.clear(fd, key);\n  }\n\n  function close(uint fd) external {\n    m_kernelArea.close(fd);\n  }\n\n  function link(bytes calldata source, bytes calldata target) external {\n    m_kernelArea.link(source, target);\n  }\n\n  function unlink(bytes calldata path) external {\n    m_kernelArea.unlink(path);\n  }\n\n  function symlink(bytes calldata source, bytes calldata target) external {\n    m_kernelArea.symlink(source, target);\n  }\n\n  function readlink(bytes calldata path) external view returns (bytes memory) {\n    return m_kernelArea.readlink(path);\n  }\n\n  function move(bytes calldata source, bytes calldata target) external {\n    m_kernelArea.move(source, target);\n  }\n\n  function copy(bytes calldata source, bytes calldata target) external {\n    m_kernelArea.copy(source, target);\n  }\n\n  function chown(bytes calldata path, address owner, address group) external {\n    m_kernelArea.chown(path, owner, group);\n  }\n\n  function chmod(bytes calldata path, uint16 mode) external {\n    m_kernelArea.chmod(path, mode);\n  }\n\n  function getcwd() external view returns (bytes memory) {\n    return m_kernelArea.getcwd();\n  }\n\n  function chdir(bytes calldata path) external {\n    m_kernelArea.chdir(path);\n  }\n\n  function mkdir(bytes calldata path) external {\n    m_kernelArea.mkdir(path);\n  }\n\n  function rmdir(bytes calldata path) external {\n    m_kernelArea.rmdir(path);\n  }\n\n  function stat(bytes calldata path) external view returns (FileSystem.FileType fileType, uint16 mode, uint ino, uint links, address owner, address group, uint entries, uint size, uint lastModified) {\n    return m_kernelArea.stat(path);\n  }\n\n  function lstat(bytes calldata path) external view returns (FileSystem.FileType fileType, uint16 mode, uint ino, uint links, address owner, address group, uint entries, uint size, uint lastModified) {\n    return m_kernelArea.lstat(path);\n  }\n\n  function fstat(uint fd) external view returns (FileSystem.FileType fileType, uint16 mode, uint ino, uint links, address owner, address group, uint entries, uint size, uint lastModified) {\n    return m_kernelArea.fstat(fd);\n  }\n}\n",
  "sourcePath": "/home/hector/ethfs/contracts/kernel/KernelImpl.sol",
  "compiler": {
    "name": "solc",
    "version": "0.5.16+commit.9c3226ce.Emscripten.clang"
  },
  "schemaVersion": "3.1.0",
  "updatedAt": "2020-04-16T18:57:12.287Z",
  "networkType": "ethereum",
  "devdoc": {
    "methods": {}
  },
  "userdoc": {
    "methods": {}
  }
}