{
  "contractName": "KernelImpl",
  "abi": [
    {
      "inputs": [
        {
          "internalType": "contract FileSystem",
          "name": "fileSystem",
          "type": "address"
        }
      ],
      "stateMutability": "nonpayable",
      "type": "constructor"
    },
    {
      "inputs": [],
      "name": "result",
      "outputs": [
        {
          "internalType": "uint256",
          "name": "",
          "type": "uint256"
        }
      ],
      "stateMutability": "view",
      "type": "function",
      "constant": true
    },
    {
      "inputs": [
        {
          "internalType": "bytes",
          "name": "path",
          "type": "bytes"
        },
        {
          "internalType": "uint256",
          "name": "flags",
          "type": "uint256"
        }
      ],
      "name": "open",
      "outputs": [
        {
          "internalType": "uint256",
          "name": "",
          "type": "uint256"
        }
      ],
      "stateMutability": "nonpayable",
      "type": "function"
    },
    {
      "inputs": [
        {
          "internalType": "uint256",
          "name": "fd",
          "type": "uint256"
        },
        {
          "internalType": "uint256",
          "name": "index",
          "type": "uint256"
        }
      ],
      "name": "readkey",
      "outputs": [
        {
          "internalType": "bytes",
          "name": "",
          "type": "bytes"
        }
      ],
      "stateMutability": "view",
      "type": "function",
      "constant": true
    },
    {
      "inputs": [
        {
          "internalType": "bytes",
          "name": "path",
          "type": "bytes"
        },
        {
          "internalType": "uint256",
          "name": "index",
          "type": "uint256"
        }
      ],
      "name": "readkeyPath",
      "outputs": [
        {
          "internalType": "bytes",
          "name": "",
          "type": "bytes"
        }
      ],
      "stateMutability": "view",
      "type": "function",
      "constant": true
    },
    {
      "inputs": [
        {
          "internalType": "uint256",
          "name": "fd",
          "type": "uint256"
        },
        {
          "internalType": "bytes",
          "name": "key",
          "type": "bytes"
        }
      ],
      "name": "read",
      "outputs": [
        {
          "internalType": "bytes",
          "name": "",
          "type": "bytes"
        }
      ],
      "stateMutability": "view",
      "type": "function",
      "constant": true
    },
    {
      "inputs": [
        {
          "internalType": "bytes",
          "name": "path",
          "type": "bytes"
        },
        {
          "internalType": "bytes",
          "name": "key",
          "type": "bytes"
        }
      ],
      "name": "readPath",
      "outputs": [
        {
          "internalType": "bytes",
          "name": "",
          "type": "bytes"
        }
      ],
      "stateMutability": "view",
      "type": "function",
      "constant": true
    },
    {
      "inputs": [
        {
          "internalType": "uint256",
          "name": "fd",
          "type": "uint256"
        },
        {
          "internalType": "bytes",
          "name": "key",
          "type": "bytes"
        },
        {
          "internalType": "bytes",
          "name": "value",
          "type": "bytes"
        }
      ],
      "name": "write",
      "outputs": [],
      "stateMutability": "nonpayable",
      "type": "function"
    },
    {
      "inputs": [
        {
          "internalType": "uint256",
          "name": "fd",
          "type": "uint256"
        },
        {
          "internalType": "bytes",
          "name": "key",
          "type": "bytes"
        },
        {
          "internalType": "uint256",
          "name": "len",
          "type": "uint256"
        }
      ],
      "name": "truncate",
      "outputs": [],
      "stateMutability": "nonpayable",
      "type": "function"
    },
    {
      "inputs": [
        {
          "internalType": "uint256",
          "name": "fd",
          "type": "uint256"
        },
        {
          "internalType": "bytes",
          "name": "key",
          "type": "bytes"
        }
      ],
      "name": "clear",
      "outputs": [],
      "stateMutability": "nonpayable",
      "type": "function"
    },
    {
      "inputs": [
        {
          "internalType": "uint256",
          "name": "fd",
          "type": "uint256"
        }
      ],
      "name": "close",
      "outputs": [],
      "stateMutability": "nonpayable",
      "type": "function"
    },
    {
      "inputs": [
        {
          "internalType": "bytes",
          "name": "source",
          "type": "bytes"
        },
        {
          "internalType": "bytes",
          "name": "target",
          "type": "bytes"
        }
      ],
      "name": "link",
      "outputs": [],
      "stateMutability": "nonpayable",
      "type": "function"
    },
    {
      "inputs": [
        {
          "internalType": "bytes",
          "name": "path",
          "type": "bytes"
        }
      ],
      "name": "unlink",
      "outputs": [],
      "stateMutability": "nonpayable",
      "type": "function"
    },
    {
      "inputs": [
        {
          "internalType": "bytes",
          "name": "source",
          "type": "bytes"
        },
        {
          "internalType": "bytes",
          "name": "target",
          "type": "bytes"
        }
      ],
      "name": "symlink",
      "outputs": [],
      "stateMutability": "nonpayable",
      "type": "function"
    },
    {
      "inputs": [
        {
          "internalType": "bytes",
          "name": "path",
          "type": "bytes"
        }
      ],
      "name": "readlink",
      "outputs": [
        {
          "internalType": "bytes",
          "name": "",
          "type": "bytes"
        }
      ],
      "stateMutability": "view",
      "type": "function",
      "constant": true
    },
    {
      "inputs": [
        {
          "internalType": "bytes",
          "name": "source",
          "type": "bytes"
        },
        {
          "internalType": "bytes",
          "name": "target",
          "type": "bytes"
        }
      ],
      "name": "move",
      "outputs": [],
      "stateMutability": "nonpayable",
      "type": "function"
    },
    {
      "inputs": [
        {
          "internalType": "bytes",
          "name": "source",
          "type": "bytes"
        },
        {
          "internalType": "bytes",
          "name": "target",
          "type": "bytes"
        }
      ],
      "name": "copy",
      "outputs": [],
      "stateMutability": "nonpayable",
      "type": "function"
    },
    {
      "inputs": [
        {
          "internalType": "bytes",
          "name": "path",
          "type": "bytes"
        },
        {
          "internalType": "address",
          "name": "owner",
          "type": "address"
        },
        {
          "internalType": "address",
          "name": "group",
          "type": "address"
        }
      ],
      "name": "chown",
      "outputs": [],
      "stateMutability": "nonpayable",
      "type": "function"
    },
    {
      "inputs": [
        {
          "internalType": "bytes",
          "name": "path",
          "type": "bytes"
        },
        {
          "internalType": "uint16",
          "name": "mode",
          "type": "uint16"
        }
      ],
      "name": "chmod",
      "outputs": [],
      "stateMutability": "nonpayable",
      "type": "function"
    },
    {
      "inputs": [],
      "name": "getcwd",
      "outputs": [
        {
          "internalType": "bytes",
          "name": "",
          "type": "bytes"
        }
      ],
      "stateMutability": "view",
      "type": "function",
      "constant": true
    },
    {
      "inputs": [
        {
          "internalType": "bytes",
          "name": "path",
          "type": "bytes"
        }
      ],
      "name": "chdir",
      "outputs": [],
      "stateMutability": "nonpayable",
      "type": "function"
    },
    {
      "inputs": [
        {
          "internalType": "bytes",
          "name": "path",
          "type": "bytes"
        }
      ],
      "name": "mkdir",
      "outputs": [],
      "stateMutability": "nonpayable",
      "type": "function"
    },
    {
      "inputs": [
        {
          "internalType": "bytes",
          "name": "path",
          "type": "bytes"
        }
      ],
      "name": "rmdir",
      "outputs": [],
      "stateMutability": "nonpayable",
      "type": "function"
    },
    {
      "inputs": [
        {
          "internalType": "bytes",
          "name": "path",
          "type": "bytes"
        }
      ],
      "name": "stat",
      "outputs": [
        {
          "internalType": "enum FileSystem.FileType",
          "name": "fileType",
          "type": "uint8"
        },
        {
          "internalType": "uint16",
          "name": "mode",
          "type": "uint16"
        },
        {
          "internalType": "uint256",
          "name": "ino",
          "type": "uint256"
        },
        {
          "internalType": "uint256",
          "name": "links",
          "type": "uint256"
        },
        {
          "internalType": "address",
          "name": "owner",
          "type": "address"
        },
        {
          "internalType": "address",
          "name": "group",
          "type": "address"
        },
        {
          "internalType": "uint256",
          "name": "entries",
          "type": "uint256"
        },
        {
          "internalType": "uint256",
          "name": "size",
          "type": "uint256"
        },
        {
          "internalType": "uint256",
          "name": "lastModified",
          "type": "uint256"
        }
      ],
      "stateMutability": "view",
      "type": "function",
      "constant": true
    },
    {
      "inputs": [
        {
          "internalType": "bytes",
          "name": "path",
          "type": "bytes"
        }
      ],
      "name": "lstat",
      "outputs": [
        {
          "internalType": "enum FileSystem.FileType",
          "name": "fileType",
          "type": "uint8"
        },
        {
          "internalType": "uint16",
          "name": "mode",
          "type": "uint16"
        },
        {
          "internalType": "uint256",
          "name": "ino",
          "type": "uint256"
        },
        {
          "internalType": "uint256",
          "name": "links",
          "type": "uint256"
        },
        {
          "internalType": "address",
          "name": "owner",
          "type": "address"
        },
        {
          "internalType": "address",
          "name": "group",
          "type": "address"
        },
        {
          "internalType": "uint256",
          "name": "entries",
          "type": "uint256"
        },
        {
          "internalType": "uint256",
          "name": "size",
          "type": "uint256"
        },
        {
          "internalType": "uint256",
          "name": "lastModified",
          "type": "uint256"
        }
      ],
      "stateMutability": "view",
      "type": "function",
      "constant": true
    },
    {
      "inputs": [
        {
          "internalType": "uint256",
          "name": "fd",
          "type": "uint256"
        }
      ],
      "name": "fstat",
      "outputs": [
        {
          "internalType": "enum FileSystem.FileType",
          "name": "fileType",
          "type": "uint8"
        },
        {
          "internalType": "uint16",
          "name": "mode",
          "type": "uint16"
        },
        {
          "internalType": "uint256",
          "name": "ino",
          "type": "uint256"
        },
        {
          "internalType": "uint256",
          "name": "links",
          "type": "uint256"
        },
        {
          "internalType": "address",
          "name": "owner",
          "type": "address"
        },
        {
          "internalType": "address",
          "name": "group",
          "type": "address"
        },
        {
          "internalType": "uint256",
          "name": "entries",
          "type": "uint256"
        },
        {
          "internalType": "uint256",
          "name": "size",
          "type": "uint256"
        },
        {
          "internalType": "uint256",
          "name": "lastModified",
          "type": "uint256"
        }
      ],
      "stateMutability": "view",
      "type": "function",
      "constant": true
    }
  ],
  "bytecode": "0x608060405234801561001057600080fd5b506040516118c43803806118c483398101604081905261002f916100c0565b6040517f391cb7f100000000000000000000000000000000000000000000000000000000815260006004820152600160a060020a038216602482015273__KernelLib_____________________________9063391cb7f19060440160006040518083038186803b1580156100a257600080fd5b505af41580156100b6573d6000803e3d6000fd5b50505050506100ee565b6000602082840312156100d1578081fd5b8151600160a060020a03811681146100e7578182fd5b9392505050565b6117c7806100fd6000396000f3fe608060405234801561001057600080fd5b50600436106101775760003560e060020a900480637c4024ee116100e2578063c5cdd83e1161009b578063e492c9f111610075578063e492c9f114610330578063e623156514610343578063e7bafd4314610356578063f0b486771461036957600080fd5b8063c5cdd83e14610302578063ca21b1c914610315578063d57fd6a51461031d57600080fd5b80637c4024ee14610290578063829e7369146102a3578063a562b135146102b6578063af89ee26146102c9578063b9e4bbb3146102dc578063c4701cca146102ef57600080fd5b80632a5dea89116101345780632a5dea891461021b578063414227de1461023c578063653721471461024f5780636caae56514610257578063775dc2921461026a5780637938ff611461027d57600080fd5b806305ed1e421461017c5780630aebeb4e146101915780630d28a6af146101a457806311a7ef5f146101b75780632039e6e5146101e057806326ab71ca14610208575b600080fd5b61018f61018a36600461102d565b61037c565b005b61018f61019f366004611319565b610405565b61018f6101b236600461140a565b61048b565b6101ca6101c5366004611191565b61051a565b6040516101d791906114a5565b60405180910390f35b6101f36101ee36600461102d565b6105d0565b6040516101d7999897969594939291906114d8565b6101ca6102163660046110d3565b61068e565b61022e610229366004611191565b610747565b6040519081526020016101d7565b6101f361024a36600461102d565b6107f0565b61022e61083e565b61018f6102653660046110d3565b6108e2565b61018f61027836600461106d565b61093b565b61018f61028b36600461102d565b610994565b61018f61029e3660046110d3565b6109e9565b6101ca6102b1366004611349565b610a42565b61018f6102c4366004611393565b610a9c565b61018f6102d73660046110d3565b610b2e565b6101f36102ea366004611319565b610b87565b6101ca6102fd36600461145b565b610c4c565b61018f610310366004611349565b610d05565b6101ca610d91565b61018f61032b3660046110d3565b610e34565b61018f61033e36600461102d565b610e8d565b6101ca61035136600461102d565b610ee2565b61018f61036436600461113c565b610f3a565b61018f61037736600461102d565b610f91565b6040517fd9066d3300000000000000000000000000000000000000000000000000000000815273__KernelLib_____________________________9063d9066d33906103d1906000908690869060040161156b565b60006040518083038186803b1580156103e957600080fd5b505af41580156103fd573d6000803e3d6000fd5b505050505050565b6040517f0fe3aaa8000000000000000000000000000000000000000000000000000000008152600060048201526024810182905273__KernelLib_____________________________90630fe3aaa89060440160006040518083038186803b15801561047057600080fd5b505af4158015610484573d6000803e3d6000fd5b5050505050565b6040517f2fa078cc00000000000000000000000000000000000000000000000000000000815273__KernelLib_____________________________90632fa078cc906104e49060009088908890889088906004016116cb565b60006040518083038186803b1580156104fc57600080fd5b505af4158015610510573d6000803e3d6000fd5b5050505050505050565b6040517f2a53313200000000000000000000000000000000000000000000000000000000815260609073__KernelLib_____________________________90632a5331329061057490600090889088908890600401611636565b60006040518083038186803b15801561058c57600080fd5b505af41580156105a0573d6000803e3d6000fd5b505050506040513d6000823e601f3d908101601f191682016040526105c891908101906111db565b949350505050565b60008060008060008060008060008073__KernelLib_____________________________63df50381a90918d8d6040518463ffffffff1660e060020a02815260040161061e9392919061156b565b6101206040518083038186803b15801561063757600080fd5b505af415801561064b573d6000803e3d6000fd5b505050506040513d601f19601f8201168201806040525081019061066f9190611284565b9850985098509850985098509850985098509295985092959850929598565b6040517f10cc436c00000000000000000000000000000000000000000000000000000000815260609073__KernelLib_____________________________906310cc436c906106ea9060009089908990899089906004016115ce565b60006040518083038186803b15801561070257600080fd5b505af4158015610716573d6000803e3d6000fd5b505050506040513d6000823e601f3d908101601f1916820160405261073e91908101906111db565b95945050505050565b6040517f0dba30bf00000000000000000000000000000000000000000000000000000000815260009073__KernelLib_____________________________90630dba30bf906107a0908490889088908890600401611636565b60206040518083038186803b1580156107b857600080fd5b505af41580156107cc573d6000803e3d6000fd5b505050506040513d601f19601f820116820180604052508101906105c89190611331565b60008060008060008060008060008073__KernelLib_____________________________636489737c90918d8d6040518463ffffffff1660e060020a02815260040161061e9392919061156b565b6040517fbb1eb5b70000000000000000000000000000000000000000000000000000000081526000600482018190529073__KernelLib_____________________________9063bb1eb5b79060240160206040518083038186803b1580156108a557600080fd5b505af41580156108b9573d6000803e3d6000fd5b505050506040513d601f19601f820116820180604052508101906108dd9190611331565b905090565b6040517fc9d1712100000000000000000000000000000000000000000000000000000000815273__KernelLib_____________________________9063c9d17121906104e49060009088908890889088906004016115ce565b6040517ffaf9d9c600000000000000000000000000000000000000000000000000000000815273__KernelLib_____________________________9063faf9d9c6906104e4906000908890889088908890600401611585565b6040517feb8622a800000000000000000000000000000000000000000000000000000000815273__KernelLib_____________________________9063eb8622a8906103d1906000908690869060040161156b565b6040517f3811861d00000000000000000000000000000000000000000000000000000000815273__KernelLib_____________________________90633811861d906104e49060009088908890889088906004016115ce565b6040517fe52fdc4600000000000000000000000000000000000000000000000000000000815260609073__KernelLib_____________________________9063e52fdc469061057490600090889088908890600401611661565b6040517ff77e1c0000000000000000000000000000000000000000000000000000000000815273__KernelLib_____________________________9063f77e1c0090610af7906000908990899089908990899060040161168b565b60006040518083038186803b158015610b0f57600080fd5b505af4158015610b23573d6000803e3d6000fd5b505050505050505050565b6040517fe833846300000000000000000000000000000000000000000000000000000000815273__KernelLib_____________________________9063e8338463906104e49060009088908890889088906004016115ce565b60008060008060008060008060008073__KernelLib_____________________________63f27f8f3f90918c6040518363ffffffff1660e060020a028152600401610bdc929190918252602082015260400190565b6101206040518083038186803b158015610bf557600080fd5b505af4158015610c09573d6000803e3d6000fd5b505050506040513d601f19601f82011682018060405250810190610c2d9190611284565b9850985098509850985098509850985098509193959799909294969850565b6040517fcb5e973f00000000000000000000000000000000000000000000000000000000815260006004820152602481018390526044810182905260609073__KernelLib_____________________________9063cb5e973f906064015b60006040518083038186803b158015610cc257600080fd5b505af4158015610cd6573d6000803e3d6000fd5b505050506040513d6000823e601f3d908101601f19168201604052610cfe91908101906111db565b9392505050565b6040517fd90615c000000000000000000000000000000000000000000000000000000000815273__KernelLib_____________________________9063d90615c090610d5c90600090879087908790600401611661565b60006040518083038186803b158015610d7457600080fd5b505af4158015610d88573d6000803e3d6000fd5b50505050505050565b6040517ffc577fca0000000000000000000000000000000000000000000000000000000081526000600482015260609073__KernelLib_____________________________9063fc577fca9060240160006040518083038186803b158015610df857600080fd5b505af4158015610e0c573d6000803e3d6000fd5b505050506040513d6000823e601f3d908101601f191682016040526108dd91908101906111db565b6040517f4e631f8200000000000000000000000000000000000000000000000000000000815273__KernelLib_____________________________90634e631f82906104e49060009088908890889088906004016115ce565b6040517fbecc914800000000000000000000000000000000000000000000000000000000815273__KernelLib_____________________________9063becc9148906103d1906000908690869060040161156b565b6040517ff8f7648900000000000000000000000000000000000000000000000000000000815260609073__KernelLib_____________________________9063f8f7648990610caa906000908790879060040161156b565b6040517fc16d80cb00000000000000000000000000000000000000000000000000000000815273__KernelLib_____________________________9063c16d80cb90610d5c90600090879087908790600401611607565b6040517f5bf28ba100000000000000000000000000000000000000000000000000000000815273__KernelLib_____________________________90635bf28ba1906103d1906000908690869060040161156b565b60008083601f840112610ff7578081fd5b50813567ffffffffffffffff81111561100e578182fd5b60208301915083602082850101111561102657600080fd5b9250929050565b6000806020838503121561103f578182fd5b823567ffffffffffffffff811115611055578283fd5b61106185828601610fe6565b90969095509350505050565b60008060008060608587031215611082578182fd5b843567ffffffffffffffff811115611098578283fd5b6110a487828801610fe6565b90955093505060208501356110b88161175c565b915060408501356110c88161175c565b939692955090935050565b600080600080604085870312156110e8578384fd5b843567ffffffffffffffff808211156110ff578586fd5b61110b88838901610fe6565b90965094506020870135915080821115611123578384fd5b5061113087828801610fe6565b95989497509550505050565b600080600060408486031215611150578283fd5b833567ffffffffffffffff811115611166578384fd5b61117286828701610fe6565b909450925050602084013561118681611781565b809150509250925092565b6000806000604084860312156111a5578283fd5b833567ffffffffffffffff8111156111bb578384fd5b6111c786828701610fe6565b909790965060209590950135949350505050565b6000602082840312156111ec578081fd5b815167ffffffffffffffff80821115611203578283fd5b818401915084601f830112611216578283fd5b8151818111156112285761122861172d565b604051601f8201601f19908116603f011681019083821181831017156112505761125061172d565b81604052828152876020848701011115611268578586fd5b6112798360208301602088016116fd565b979650505050505050565b60008060008060008060008060006101208a8c0312156112a2578485fd5b8951600481106112b0578586fd5b60208b01519099506112c181611781565b8098505060408a0151965060608a0151955060808a01516112e18161175c565b60a08b01519095506112f28161175c565b8094505060c08a0151925060e08a015191506101008a015190509295985092959850929598565b60006020828403121561132a578081fd5b5035919050565b600060208284031215611342578081fd5b5051919050565b60008060006040848603121561135d578283fd5b83359250602084013567ffffffffffffffff81111561137a578283fd5b61138686828701610fe6565b9497909650939450505050565b6000806000806000606086880312156113aa578081fd5b85359450602086013567ffffffffffffffff808211156113c8578283fd5b6113d489838a01610fe6565b909650945060408801359150808211156113ec578283fd5b506113f988828901610fe6565b969995985093965092949392505050565b6000806000806060858703121561141f578182fd5b84359350602085013567ffffffffffffffff81111561143c578283fd5b61144887828801610fe6565b9598909750949560400135949350505050565b6000806040838503121561146d578182fd5b50508035926020909101359150565b81835281816020850137506000828201602090810191909152601f909101601f19169091010190565b60208152600082518060208401526114c48160408501602087016116fd565b601f01601f19169190910160400192915050565b610120810160048b10611514577f4e487b7100000000000000000000000000000000000000000000000000000000600052602160045260246000fd5b99815261ffff9890981660208901526040880196909652606087019490945273ffffffffffffffffffffffffffffffffffffffff9283166080870152911660a085015260c084015260e08301526101009091015290565b83815260406020820152600061073e60408301848661147c565b85815260806020820152600061159f60808301868861147c565b73ffffffffffffffffffffffffffffffffffffffff948516604084015292909316606090910152949350505050565b8581526060602082015260006115e860608301868861147c565b82810360408401526115fb81858761147c565b98975050505050505050565b84815260606020820152600061162160608301858761147c565b905061ffff8316604083015295945050505050565b84815260606020820152600061165060608301858761147c565b905082604083015295945050505050565b84815283602082015260606040820152600061168160608301848661147c565b9695505050505050565b8681528560208201526080604082015260006116ab60808301868861147c565b82810360608401526116be81858761147c565b9998505050505050505050565b8581528460208201526080604082015260006116eb60808301858761147c565b90508260608301529695505050505050565b60005b83811015611718578181015183820152602001611700565b83811115611727576000848401525b50505050565b7f4e487b7100000000000000000000000000000000000000000000000000000000600052604160045260246000fd5b73ffffffffffffffffffffffffffffffffffffffff8116811461177e57600080fd5b50565b61ffff8116811461177e57600080fdfea2646970667358221220b56cf96b7f0283d9d6e7be3437b7a62a8bb6182cf623b88e37a97c98780194d864736f6c63430008040033",
  "immutableReferences": {},
  "source": "// SPDX-License-Identifier: MIT\npragma solidity >= 0.5.8;\n\nimport '../interface/Kernel.sol';\nimport './KernelLib.sol';\n\ncontract KernelImpl is Kernel {\n  using KernelLib for KernelLib.KernelArea;\n  KernelLib.KernelArea m_kernelArea;\n\n  constructor(FileSystem fileSystem) {\n    m_kernelArea.init(fileSystem);\n  }\n\n  function result() external view override returns (uint) {\n    return m_kernelArea.result();\n  }\n\n  function open(bytes calldata path, uint flags) external override returns (uint) {\n    return m_kernelArea.open(path, flags);\n  }\n\n  function readkey(uint fd, uint index) external view override returns (bytes memory) {\n    return m_kernelArea.readkey(fd, index);\n  }\n\n  function readkeyPath(bytes calldata path, uint index) external view override returns (bytes memory) {\n    return m_kernelArea.readkeyPath(path, index);\n  }\n\n  function read(uint fd, bytes calldata key) external view override returns (bytes memory) {\n    return m_kernelArea.read(fd, key);\n  }\n\n  function readPath(bytes calldata path, bytes calldata key) external view override returns (bytes memory) {\n    return m_kernelArea.readPath(path, key);\n  }\n\n  function write(uint fd, bytes calldata key, bytes calldata value) external override {\n    m_kernelArea.write(fd, key, value);\n  }\n\n  function truncate(uint fd, bytes calldata key, uint len) external override {\n    m_kernelArea.truncate(fd, key, len);\n  }\n\n  function clear(uint fd, bytes calldata key) external override {\n    m_kernelArea.clear(fd, key);\n  }\n\n  function close(uint fd) external override {\n    m_kernelArea.close(fd);\n  }\n\n  function link(bytes calldata source, bytes calldata target) external override {\n    m_kernelArea.link(source, target);\n  }\n\n  function unlink(bytes calldata path) external override {\n    m_kernelArea.unlink(path);\n  }\n\n  function symlink(bytes calldata source, bytes calldata target) external override {\n    m_kernelArea.symlink(source, target);\n  }\n\n  function readlink(bytes calldata path) external view override returns (bytes memory) {\n    return m_kernelArea.readlink(path);\n  }\n\n  function move(bytes calldata source, bytes calldata target) external override {\n    m_kernelArea.move(source, target);\n  }\n\n  function copy(bytes calldata source, bytes calldata target) external override {\n    m_kernelArea.copy(source, target);\n  }\n\n  function chown(bytes calldata path, address owner, address group) external override {\n    m_kernelArea.chown(path, owner, group);\n  }\n\n  function chmod(bytes calldata path, uint16 mode) external override {\n    m_kernelArea.chmod(path, mode);\n  }\n\n  function getcwd() external view override returns (bytes memory) {\n    return m_kernelArea.getcwd();\n  }\n\n  function chdir(bytes calldata path) external override {\n    m_kernelArea.chdir(path);\n  }\n\n  function mkdir(bytes calldata path) external override {\n    m_kernelArea.mkdir(path);\n  }\n\n  function rmdir(bytes calldata path) external override {\n    m_kernelArea.rmdir(path);\n  }\n\n  function stat(bytes calldata path) external view override returns (FileSystem.FileType fileType, uint16 mode, uint ino, uint links, address owner, address group, uint entries, uint size, uint lastModified) {\n    return m_kernelArea.stat(path);\n  }\n\n  function lstat(bytes calldata path) external view override returns (FileSystem.FileType fileType, uint16 mode, uint ino, uint links, address owner, address group, uint entries, uint size, uint lastModified) {\n    return m_kernelArea.lstat(path);\n  }\n\n  function fstat(uint fd) external view override returns (FileSystem.FileType fileType, uint16 mode, uint ino, uint links, address owner, address group, uint entries, uint size, uint lastModified) {\n    return m_kernelArea.fstat(fd);\n  }\n}\n",
  "sourcePath": "/home/hector/src/ethfs/contracts/kernel/KernelImpl.sol",
  "compiler": {
    "name": "solc",
    "version": "0.8.4+commit.c7e474f2.Emscripten.clang"
  },
  "schemaVersion": "3.4.1",
  "updatedAt": "2021-05-27T11:07:19.400Z",
  "networkType": "ethereum",
  "devdoc": {
    "kind": "dev",
    "methods": {},
    "version": 1
  },
  "userdoc": {
    "kind": "user",
    "methods": {},
    "version": 1
  }
}